{"abi":[{"type":"constructor","inputs":[],"stateMutability":"payable"},{"type":"receive","stateMutability":"payable"},{"type":"function","name":"confirmForward","inputs":[{"name":"feedId","type":"bytes32","internalType":"bytes32"},{"name":"answer","type":"int256","internalType":"int256"},{"name":"updatedAt","type":"uint256","internalType":"uint256"},{"name":"reason","type":"uint8","internalType":"enum IChainlinkFeedReactorEvents.UpdateReason"}],"outputs":[],"stateMutability":"nonpayable"},{"type":"function","name":"feedIds","inputs":[{"name":"","type":"uint256","internalType":"uint256"}],"outputs":[{"name":"","type":"bytes32","internalType":"bytes32"}],"stateMutability":"view"},{"type":"function","name":"feeds","inputs":[{"name":"","type":"bytes32","internalType":"bytes32"}],"outputs":[{"name":"originChainId","type":"uint64","internalType":"uint64"},{"name":"feedAddress","type":"address","internalType":"address"},{"name":"destinationChainId","type":"uint64","internalType":"uint64"},{"name":"destinationProxy","type":"address","internalType":"address"},{"name":"decimals","type":"uint8","internalType":"uint8"},{"name":"description","type":"string","internalType":"string"},{"name":"deviationThreshold","type":"uint256","internalType":"uint256"},{"name":"heartbeat","type":"uint256","internalType":"uint256"},{"name":"lastSentPrice","type":"int256","internalType":"int256"},{"name":"lastSentTime","type":"uint256","internalType":"uint256"},{"name":"lastProcessedRoundId","type":"uint80","internalType":"uint80"},{"name":"active","type":"bool","internalType":"bool"}],"stateMutability":"view"},{"type":"function","name":"getAllFeeds","inputs":[],"outputs":[{"name":"","type":"bytes32[]","internalType":"bytes32[]"}],"stateMutability":"view"},{"type":"function","name":"getEfficiency","inputs":[{"name":"feedId","type":"bytes32","internalType":"bytes32"}],"outputs":[{"name":"forwardRate","type":"uint256","internalType":"uint256"},{"name":"gasSaved","type":"uint256","internalType":"uint256"}],"stateMutability":"view"},{"type":"function","name":"getFeedConfig","inputs":[{"name":"feedId","type":"bytes32","internalType":"bytes32"}],"outputs":[{"name":"","type":"tuple","internalType":"struct ChainlinkFeedReactor.FeedConfig","components":[{"name":"originChainId","type":"uint64","internalType":"uint64"},{"name":"feedAddress","type":"address","internalType":"address"},{"name":"destinationChainId","type":"uint64","internalType":"uint64"},{"name":"destinationProxy","type":"address","internalType":"address"},{"name":"decimals","type":"uint8","internalType":"uint8"},{"name":"description","type":"string","internalType":"string"},{"name":"deviationThreshold","type":"uint256","internalType":"uint256"},{"name":"heartbeat","type":"uint256","internalType":"uint256"},{"name":"lastSentPrice","type":"int256","internalType":"int256"},{"name":"lastSentTime","type":"uint256","internalType":"uint256"},{"name":"lastProcessedRoundId","type":"uint80","internalType":"uint80"},{"name":"active","type":"bool","internalType":"bool"}]}],"stateMutability":"view"},{"type":"function","name":"getFeedCount","inputs":[],"outputs":[{"name":"","type":"uint256","internalType":"uint256"}],"stateMutability":"view"},{"type":"function","name":"getFeedMetrics","inputs":[{"name":"feedId","type":"bytes32","internalType":"bytes32"}],"outputs":[{"name":"","type":"tuple","internalType":"struct ChainlinkFeedReactor.FeedMetrics","components":[{"name":"totalEventsReceived","type":"uint256","internalType":"uint256"},{"name":"updatesForwarded","type":"uint256","internalType":"uint256"},{"name":"updatesSkipped","type":"uint256","internalType":"uint256"},{"name":"deviationTriggered","type":"uint256","internalType":"uint256"},{"name":"heartbeatTriggered","type":"uint256","internalType":"uint256"},{"name":"estimatedGasSaved","type":"uint256","internalType":"uint256"}]}],"stateMutability":"view"},{"type":"function","name":"getGlobalStats","inputs":[],"outputs":[{"name":"totalEvents","type":"uint256","internalType":"uint256"},{"name":"totalForwarded","type":"uint256","internalType":"uint256"},{"name":"totalSkipped","type":"uint256","internalType":"uint256"},{"name":"totalGasSaved","type":"uint256","internalType":"uint256"},{"name":"avgForwardRate","type":"uint256","internalType":"uint256"}],"stateMutability":"view"},{"type":"function","name":"metrics","inputs":[{"name":"","type":"bytes32","internalType":"bytes32"}],"outputs":[{"name":"totalEventsReceived","type":"uint256","internalType":"uint256"},{"name":"updatesForwarded","type":"uint256","internalType":"uint256"},{"name":"updatesSkipped","type":"uint256","internalType":"uint256"},{"name":"deviationTriggered","type":"uint256","internalType":"uint256"},{"name":"heartbeatTriggered","type":"uint256","internalType":"uint256"},{"name":"estimatedGasSaved","type":"uint256","internalType":"uint256"}],"stateMutability":"view"},{"type":"function","name":"owner","inputs":[],"outputs":[{"name":"","type":"address","internalType":"address"}],"stateMutability":"view"},{"type":"function","name":"pollFeed","inputs":[{"name":"feedId","type":"bytes32","internalType":"bytes32"},{"name":"roundId","type":"uint80","internalType":"uint80"},{"name":"answer","type":"int256","internalType":"int256"},{"name":"updatedAt","type":"uint256","internalType":"uint256"},{"name":"answeredInRound","type":"uint80","internalType":"uint80"}],"outputs":[{"name":"shouldForward","type":"bool","internalType":"bool"},{"name":"reason","type":"uint8","internalType":"enum IChainlinkFeedReactorEvents.UpdateReason"}],"stateMutability":"nonpayable"},{"type":"function","name":"registerFeed","inputs":[{"name":"originChainId","type":"uint64","internalType":"uint64"},{"name":"feedAddress","type":"address","internalType":"address"},{"name":"destinationChainId","type":"uint64","internalType":"uint64"},{"name":"destinationProxy","type":"address","internalType":"address"},{"name":"decimals","type":"uint8","internalType":"uint8"},{"name":"description","type":"string","internalType":"string"},{"name":"deviationThreshold","type":"uint256","internalType":"uint256"},{"name":"heartbeat","type":"uint256","internalType":"uint256"}],"outputs":[{"name":"","type":"bytes32","internalType":"bytes32"}],"stateMutability":"nonpayable"},{"type":"function","name":"registerFeedDefault","inputs":[{"name":"originChainId","type":"uint64","internalType":"uint64"},{"name":"feedAddress","type":"address","internalType":"address"},{"name":"destinationChainId","type":"uint64","internalType":"uint64"},{"name":"destinationProxy","type":"address","internalType":"address"},{"name":"decimals","type":"uint8","internalType":"uint8"},{"name":"description","type":"string","internalType":"string"}],"outputs":[{"name":"","type":"bytes32","internalType":"bytes32"}],"stateMutability":"nonpayable"},{"type":"function","name":"setFeedActive","inputs":[{"name":"feedId","type":"bytes32","internalType":"bytes32"},{"name":"active","type":"bool","internalType":"bool"}],"outputs":[],"stateMutability":"nonpayable"},{"type":"function","name":"transferOwnership","inputs":[{"name":"newOwner","type":"address","internalType":"address"}],"outputs":[],"stateMutability":"nonpayable"},{"type":"function","name":"updateFeedConfig","inputs":[{"name":"feedId","type":"bytes32","internalType":"bytes32"},{"name":"deviationThreshold","type":"uint256","internalType":"uint256"},{"name":"heartbeat","type":"uint256","internalType":"uint256"}],"outputs":[],"stateMutability":"nonpayable"},{"type":"event","name":"FeedRegistered","inputs":[{"name":"feedId","type":"bytes32","indexed":true,"internalType":"bytes32"},{"name":"originChainId","type":"uint64","indexed":false,"internalType":"uint64"},{"name":"feedAddress","type":"address","indexed":false,"internalType":"address"},{"name":"destinationChainId","type":"uint64","indexed":false,"internalType":"uint64"},{"name":"destinationProxy","type":"address","indexed":false,"internalType":"address"}],"anonymous":false},{"type":"event","name":"UpdateForwarded","inputs":[{"name":"feedId","type":"bytes32","indexed":true,"internalType":"bytes32"},{"name":"roundId","type":"uint80","indexed":false,"internalType":"uint80"},{"name":"price","type":"int256","indexed":false,"internalType":"int256"},{"name":"updatedAt","type":"uint256","indexed":false,"internalType":"uint256"},{"name":"reason","type":"uint8","indexed":false,"internalType":"enum IChainlinkFeedReactorEvents.UpdateReason"}],"anonymous":false},{"type":"event","name":"UpdateSkipped","inputs":[{"name":"feedId","type":"bytes32","indexed":true,"internalType":"bytes32"},{"name":"roundId","type":"uint80","indexed":false,"internalType":"uint80"},{"name":"price","type":"int256","indexed":false,"internalType":"int256"},{"name":"reason","type":"uint8","indexed":false,"internalType":"enum IChainlinkFeedReactorEvents.SkipReason"}],"anonymous":false}],"bytecode":{"object":"0x6080604052600380546001600160a01b03191633179055612002806100235f395ff3fe6080604052600436106100fd575f3560e01c8063942bc3db11610092578063dcaa79af11610062578063dcaa79af14610338578063e90f1a43146103b4578063edd3a547146103eb578063ef0471871461040a578063f2fde38b14610429575f5ffd5b8063942bc3db146102715780639c65e1d814610290578063a6ecc203146102af578063b7f433d114610319575f5ffd5b80633e68080a116100cd5780633e68080a146101a95780634e5b19ca146101dd5780636b4169c3146101fe5780638da5cb5b1461023a575f5ffd5b806309b80aa814610108578063128767981461013e5780632521adbd1461015f5780632cc9dfb31461018b575f5ffd5b3661010457005b5f5ffd5b348015610113575f5ffd5b5061012761012236600461179c565b610448565b60405161013592919061181b565b60405180910390f35b348015610149575f5ffd5b50610152610942565b604051610135919061183a565b34801561016a575f5ffd5b5061017e61017936600461187c565b610998565b60405161013591906118c1565b348015610196575f5ffd5b506002545b604051908152602001610135565b3480156101b4575f5ffd5b506101c86101c336600461187c565b610b4e565b60408051928352602083019190915201610135565b3480156101e8575f5ffd5b506101fc6101f73660046119ae565b610bdd565b005b348015610209575f5ffd5b50610212610cd1565b604080519586526020860194909452928401919091526060830152608082015260a001610135565b348015610245575f5ffd5b50600354610259906001600160a01b031681565b6040516001600160a01b039091168152602001610135565b34801561027c575f5ffd5b5061019b61028b366004611a6f565b610dce565b34801561029b575f5ffd5b5061019b6102aa366004611aff565b610e7c565b3480156102ba575f5ffd5b506102ce6102c936600461187c565b6112e8565b60405161013591905f60c082019050825182526020830151602083015260408301516040830152606083015160608301526080830151608083015260a083015160a083015292915050565b348015610324575f5ffd5b5061019b61033336600461187c565b611372565b348015610343575f5ffd5b5061038761035236600461187c565b600160208190525f91825260409091208054918101546002820154600383015460048401546005909401549293919290919086565b604080519687526020870195909552938501929092526060840152608083015260a082015260c001610135565b3480156103bf575f5ffd5b506103d36103ce36600461187c565b611391565b6040516101359c9b9a99989796959493929190611ba1565b3480156103f6575f5ffd5b506101fc610405366004611c39565b6114a3565b348015610415575f5ffd5b506101fc610424366004611c6b565b6114fa565b348015610434575f5ffd5b506101fc610443366004611c94565b6115d8565b5f8581526020818152604080832060019092528220600782015483929190600160501b900460ff16801561048c57508154600160401b90046001600160a01b031615155b6104cf5760405162461bcd60e51b815260206004820152600f60248201526e46656564206e6f742061637469766560881b60448201526064015b60405180910390fd5b60078201546001600160501b039081169089161161053157887f214c8faf3811348d6be0537c6644d113435af6f4df317ae2fe38e19ea51ca46c8989600260405161051c93929190611cad565b60405180910390a25f5f935093505050610938565b60078201805469ffffffffffffffffffff19166001600160501b038a161790558054815f61055e83611cef565b91905055505f87136105ca57887f214c8faf3811348d6be0537c6644d113435af6f4df317ae2fe38e19ea51ca46c8989600260405161059f93929190611cad565b60405180910390a2600281018054905f6105b883611cef565b91905055505f5f935093505050610938565b604080516101808101825283546001600160401b038082168352600160401b918290046001600160a01b0390811660208501526001870154918216948401949094529081049092166060820152600160e01b90910460ff1660808201526002830180545f92839261071a92879160a084019161064590611d07565b80601f016020809104026020016040519081016040528092919081815260200182805461067190611d07565b80156106bc5780601f10610693576101008083540402835291602001916106bc565b820191905f5260205f20905b81548152906001019060200180831161069f57829003601f168201915b5050509183525050600382015460208201526004820154604082015260058201546060820152600682015460808201526007909101546001600160501b03811660a0830152600160501b900460ff16151560c0909101528a8a61166c565b91509150816108f057604080516101808101825285546001600160401b038082168352600160401b918290046001600160a01b0390811660208501526001890154918216948401949094529081049092166060820152600160e01b90910460ff1660808201526002850180548d927f214c8faf3811348d6be0537c6644d113435af6f4df317ae2fe38e19ea51ca46c928e928e926108999290918b9160a08401916107c490611d07565b80601f01602080910402602001604051908101604052809291908181526020018280546107f090611d07565b801561083b5780601f106108125761010080835404028352916020019161083b565b820191905f5260205f20905b81548152906001019060200180831161081e57829003601f168201915b5050509183525050600382015460208201526004820154604082015260058201546060820152600682015460808201526007909101546001600160501b03811660a0830152600160501b900460ff16151560c0909101528e8e6116e8565b6040516108a893929190611cad565b60405180910390a2600283018054905f6108c183611cef565b919050555062030d40836005015f8282546108dc9190611d3f565b909155505f96509094506109389350505050565b8a7ffb06b619206f286adeb4295eab7006f6eabc283fdb9ef7d7c03898a47a39e8268b8b8b856040516109269493929190611d52565b60405180910390a26001955093505050505b9550959350505050565b6060600280548060200260200160405190810160405280929190818152602001828054801561098e57602002820191905f5260205f20905b81548152602001906001019080831161097a575b5050505050905090565b60408051610180810182525f8082526020820181905291810182905260608082018390526080820183905260a082015260c0810182905260e081018290526101008101829052610120810182905261014081018290526101608101919091525f828152602081815260409182902082516101808101845281546001600160401b038082168352600160401b918290046001600160a01b039081169584019590955260018401549081169583019590955284049092166060830152600160e01b90920460ff16608082015260028201805491929160a084019190610a7a90611d07565b80601f0160208091040260200160405190810160405280929190818152602001828054610aa690611d07565b8015610af15780601f10610ac857610100808354040283529160200191610af1565b820191905f5260205f20905b815481529060010190602001808311610ad457829003601f168201915b5050509183525050600382015460208201526004820154604082015260058201546060820152600682015460808201526007909101546001600160501b03811660a0830152600160501b900460ff16151560c09091015292915050565b5f818152600160208181526040808420815160c0810183528154808252948201549381019390935260028101549183019190915260038101546060830152600481015460808301526005015460a082015282918203610bb257505f93849350915050565b80516020820151610bc4906064611d88565b610bce9190611d9f565b92508060a00151915050915091565b5f8481526020818152604080832060019092529091206007820154600160501b900460ff16610c405760405162461bcd60e51b815260206004820152600f60248201526e46656564206e6f742061637469766560881b60448201526064016104c6565b6005820185905560068201849055600181018054905f610c5f83611cef565b9091555060019050836002811115610c7957610c796117e8565b03610c9957600381018054905f610c8f83611cef565b9190505550610cc9565b6002836002811115610cad57610cad6117e8565b03610cc957600481018054905f610cc383611cef565b91905055505b505050505050565b5f80808080805b600254811015610da7575f60015f60028481548110610cf957610cf9611dbe565b905f5260205f20015481526020019081526020015f206040518060c00160405290815f8201548152602001600182015481526020016002820154815260200160038201548152602001600482015481526020016005820154815250509050805f015187610d669190611d3f565b9650806020015186610d789190611d3f565b9550806040015185610d8a9190611d3f565b94508060a0015184610d9c9190611d3f565b935050600101610cd8565b508415610dc75784610dba856064611d88565b610dc49190611d9f565b90505b9091929394565b6003545f906001600160a01b03163314610dfa5760405162461bcd60e51b81526004016104c690611dd2565b60405163138cbc3b60e31b81523090639c65e1d890610e30908b908b908b908b908b908b908b90603290610e1090600401611df5565b6020604051808303815f875af1158015610e4c573d5f5f3e3d5ffd5b505050506040513d601f19601f82011682018060405250810190610e709190611e75565b98975050505050505050565b6003545f906001600160a01b03163314610ea85760405162461bcd60e51b81526004016104c690611dd2565b6001600160a01b038916610ef55760405162461bcd60e51b8152602060048201526014602482015273496e76616c69642066656564206164647265737360601b60448201526064016104c6565b6001600160a01b038716610f435760405162461bcd60e51b8152602060048201526015602482015274496e76616c69642070726f7879206164647265737360581b60448201526064016104c6565b5f83118015610f5457506127108311155b610f945760405162461bcd60e51b815260206004820152601160248201527024b73b30b634b2103232bb34b0ba34b7b760791b60448201526064016104c6565b603c821015610fdb5760405162461bcd60e51b81526020600482015260136024820152721219585c9d1899585d081d1bdbc81cda1bdc9d606a1b60448201526064016104c6565b6040516001600160c01b031960c08c901b1660208201526bffffffffffffffffffffffff1960608b901b1660288201525f90603c0160408051601f1981840301815291815281516020928301205f81815292839052912054909150600160401b90046001600160a01b0316156110935760405162461bcd60e51b815260206004820152601760248201527f4665656420616c7265616479207265676973746572656400000000000000000060448201526064016104c6565b6040518061018001604052808c6001600160401b031681526020018b6001600160a01b031681526020018a6001600160401b03168152602001896001600160a01b031681526020018860ff16815260200187878080601f0160208091040260200160405190810160405280939291908181526020018383808284375f920182905250938552505050602080830188905260408084018890526060808501849052608080860185905260a0808701869052600160c09097018790528886528585529483902087518154958901516001600160a01b03908116600160401b9081026001600160e01b03199889166001600160401b0394851617178455958a01519883018054958b0151948b015160ff16600160e01b0260ff60e01b199590921690960294909616971696909617919091171691909117905582015160028201906111db9082611eec565b5060c0820151600382015560e082015160048201556101008201516005820155610120820151600682015561014082015160079091018054610160909301516001600160501b039092166affffffffffffffffffffff1990931692909217600160501b91151591909102179055600280546001810182555f919091527f405787fa12a823e0f2b7631cc41b3ba8828b3321ca811111fa75cd3aa3bb5ace01819055604080516001600160401b038d811682526001600160a01b038d81166020840152908c16828401528a166060820152905182917ff4f006a1b27906560cd3478650f7993ae5a7f7677c31400fdb593d493667fedd919081900360800190a29a9950505050505050505050565b61131b6040518060c001604052805f81526020015f81526020015f81526020015f81526020015f81526020015f81525090565b505f90815260016020818152604092839020835160c081018552815481529281015491830191909152600281015492820192909252600382015460608201526004820154608082015260059091015460a082015290565b60028181548110611381575f80fd5b5f91825260209091200154905081565b5f602081905290815260409020805460018201546002830180546001600160401b0380851695600160401b958690046001600160a01b0390811696928616959283041693600160e01b90920460ff16929091906113ed90611d07565b80601f016020809104026020016040519081016040528092919081815260200182805461141990611d07565b80156114645780601f1061143b57610100808354040283529160200191611464565b820191905f5260205f20905b81548152906001019060200180831161144757829003601f168201915b50505060038401546004850154600586015460068701546007909701549596929591945092506001600160501b0381169060ff600160501b909104168c565b6003546001600160a01b031633146114cd5760405162461bcd60e51b81526004016104c690611dd2565b5f918252602082905260409091206007018054911515600160501b0260ff60501b19909216919091179055565b6003546001600160a01b031633146115245760405162461bcd60e51b81526004016104c690611dd2565b5f8211801561153557506127108211155b6115755760405162461bcd60e51b815260206004820152601160248201527024b73b30b634b2103232bb34b0ba34b7b760791b60448201526064016104c6565b603c8110156115bc5760405162461bcd60e51b81526020600482015260136024820152721219585c9d1899585d081d1bdbc81cda1bdc9d606a1b60448201526064016104c6565b5f92835260208390526040909220600381019190915560040155565b6003546001600160a01b031633146116025760405162461bcd60e51b81526004016104c690611dd2565b6001600160a01b03811661164a5760405162461bcd60e51b815260206004820152600f60248201526e496e76616c6964206164647265737360881b60448201526064016104c6565b600380546001600160a01b0319166001600160a01b0392909216919091179055565b5f5f8461010001515f036116855750600190505f6116e0565b5f6116958587610100015161172c565b90508560c0015181106116af5760018092509250506116e0565b8560e001518661012001516116c49190611d3f565b84106116d8576001600292509250506116e0565b5f5f92509250505b935093915050565b5f5f83136116f857506002611725565b5f6117088486610100015161172c565b90508460c0015181101561171f575f915050611725565b60019150505b9392505050565b5f815f0361173d575061271061177b565b5f8284136117545761174f8484611fa6565b61175e565b61175e8385611fa6565b90508261176d61271083611d88565b6117779190611d9f565b9150505b92915050565b80356001600160501b0381168114611797575f5ffd5b919050565b5f5f5f5f5f60a086880312156117b0575f5ffd5b853594506117c060208701611781565b935060408601359250606086013591506117dc60808701611781565b90509295509295909350565b634e487b7160e01b5f52602160045260245ffd5b6003811061181857634e487b7160e01b5f52602160045260245ffd5b50565b82151581526040810161182d836117fc565b8260208301529392505050565b602080825282518282018190525f918401906040840190835b81811015611871578351835260209384019390920191600101611853565b509095945050505050565b5f6020828403121561188c575f5ffd5b5035919050565b5f81518084528060208401602086015e5f602082860101526020601f19601f83011685010191505092915050565b602081526118db6020820183516001600160401b03169052565b5f60208301516118f660408401826001600160a01b03169052565b5060408301516001600160401b03811660608401525060608301516001600160a01b038116608084015250608083015160ff811660a08401525060a083015161018060c084015261194b6101a0840182611893565b905060c084015160e084015260e08401516101008401526101008401516101208401526101208401516101408401526101408401516119966101608501826001600160501b03169052565b50610160840151801515610180850152509392505050565b5f5f5f5f608085870312156119c1575f5ffd5b8435935060208501359250604085013591506060850135600381106119e4575f5ffd5b939692955090935050565b80356001600160401b0381168114611797575f5ffd5b80356001600160a01b0381168114611797575f5ffd5b803560ff81168114611797575f5ffd5b5f5f83601f840112611a3b575f5ffd5b5081356001600160401b03811115611a51575f5ffd5b602083019150836020828501011115611a68575f5ffd5b9250929050565b5f5f5f5f5f5f5f60c0888a031215611a85575f5ffd5b611a8e886119ef565b9650611a9c60208901611a05565b9550611aaa604089016119ef565b9450611ab860608901611a05565b9350611ac660808901611a1b565b925060a08801356001600160401b03811115611ae0575f5ffd5b611aec8a828b01611a2b565b989b979a50959850939692959293505050565b5f5f5f5f5f5f5f5f5f6101008a8c031215611b18575f5ffd5b611b218a6119ef565b9850611b2f60208b01611a05565b9750611b3d60408b016119ef565b9650611b4b60608b01611a05565b9550611b5960808b01611a1b565b945060a08a01356001600160401b03811115611b73575f5ffd5b611b7f8c828d01611a2b565b9a9d999c50979a96999598959660c08101359660e09091013595509350505050565b6001600160401b038d811682526001600160a01b038d81166020840152908c1660408301528a16606082015260ff8916608082015261018060a08201525f611bed61018083018a611893565b90508760c08301528660e08301528561010083015284610120830152611c1f6101408301856001600160501b03169052565b8215156101608301529d9c50505050505050505050505050565b5f5f60408385031215611c4a575f5ffd5b8235915060208301358015158114611c60575f5ffd5b809150509250929050565b5f5f5f60608486031215611c7d575f5ffd5b505081359360208301359350604090920135919050565b5f60208284031215611ca4575f5ffd5b61172582611a05565b6001600160501b03841681526020810183905260608101611ccd836117fc565b826040830152949350505050565b634e487b7160e01b5f52601160045260245ffd5b5f60018201611d0057611d00611cdb565b5060010190565b600181811c90821680611d1b57607f821691505b602082108103611d3957634e487b7160e01b5f52602260045260245ffd5b50919050565b8082018082111561177b5761177b611cdb565b6001600160501b0385168152602081018490526040810183905260808101611d79836117fc565b82606083015295945050505050565b808202811582820484141761177b5761177b611cdb565b5f82611db957634e487b7160e01b5f52601260045260245ffd5b500490565b634e487b7160e01b5f52603260045260245ffd5b6020808252600990820152682737ba1037bbb732b960b91b604082015260600190565b6001600160401b038a811682526001600160a01b038a8116602084015290891660408301528716606082015260ff8616608082015261010060a08201819052810184905283856101208301375f61012085830101525f610120601f19601f87011683010190508360c08301528260e08301529a9950505050505050505050565b5f60208284031215611e85575f5ffd5b5051919050565b634e487b7160e01b5f52604160045260245ffd5b601f821115611ee757805f5260205f20601f840160051c81016020851015611ec55750805b601f840160051c820191505b81811015611ee4575f8155600101611ed1565b50505b505050565b81516001600160401b03811115611f0557611f05611e8c565b611f1981611f138454611d07565b84611ea0565b6020601f821160018114611f4b575f8315611f345750848201515b5f19600385901b1c1916600184901b178455611ee4565b5f84815260208120601f198516915b82811015611f7a5787850151825560209485019460019092019101611f5a565b5084821015611f9757868401515f19600387901b60f8161c191681555b50505050600190811b01905550565b8181035f831280158383131683831282161715611fc557611fc5611cdb565b509291505056fea2646970667358221220382455c5df49ea7be777764e8c0dcd176c1e862aaae41871ec639a1003ed2f7664736f6c634300081e0033","linkReferences":{}},"methodIdentifiers":{"confirmForward(bytes32,int256,uint256,uint8)":"4e5b19ca","feedIds(uint256)":"b7f433d1","feeds(bytes32)":"e90f1a43","getAllFeeds()":"12876798","getEfficiency(bytes32)":"3e68080a","getFeedConfig(bytes32)":"2521adbd","getFeedCount()":"2cc9dfb3","getFeedMetrics(bytes32)":"a6ecc203","getGlobalStats()":"6b4169c3","metrics(bytes32)":"dcaa79af","owner()":"8da5cb5b","pollFeed(bytes32,uint80,int256,uint256,uint80)":"09b80aa8","registerFeed(uint64,address,uint64,address,uint8,string,uint256,uint256)":"9c65e1d8","registerFeedDefault(uint64,address,uint64,address,uint8,string)":"942bc3db","setFeedActive(bytes32,bool)":"edd3a547","transferOwnership(address)":"f2fde38b","updateFeedConfig(bytes32,uint256,uint256)":"ef047187"},"id":1}