{"abi":[{"type":"constructor","inputs":[{"name":"decimals_","type":"uint8","internalType":"uint8"},{"name":"description_","type":"string","internalType":"string"},{"name":"heartbeat_","type":"uint256","internalType":"uint256"}],"stateMutability":"nonpayable"},{"type":"function","name":"addAuthorizedSender","inputs":[{"name":"sender","type":"address","internalType":"address"}],"outputs":[],"stateMutability":"nonpayable"},{"type":"function","name":"authorizedSenders","inputs":[{"name":"","type":"address","internalType":"address"}],"outputs":[{"name":"","type":"bool","internalType":"bool"}],"stateMutability":"view"},{"type":"function","name":"decimals","inputs":[],"outputs":[{"name":"","type":"uint8","internalType":"uint8"}],"stateMutability":"view"},{"type":"function","name":"description","inputs":[],"outputs":[{"name":"","type":"string","internalType":"string"}],"stateMutability":"view"},{"type":"function","name":"getRoundData","inputs":[{"name":"_roundId","type":"uint80","internalType":"uint80"}],"outputs":[{"name":"roundId","type":"uint80","internalType":"uint80"},{"name":"answer","type":"int256","internalType":"int256"},{"name":"startedAt","type":"uint256","internalType":"uint256"},{"name":"updatedAt","type":"uint256","internalType":"uint256"},{"name":"answeredInRound","type":"uint80","internalType":"uint80"}],"stateMutability":"view"},{"type":"function","name":"healthCheck","inputs":[],"outputs":[{"name":"isHealthy","type":"bool","internalType":"bool"},{"name":"secondsSinceUpdate","type":"uint256","internalType":"uint256"},{"name":"isPaused","type":"bool","internalType":"bool"}],"stateMutability":"view"},{"type":"function","name":"heartbeat","inputs":[],"outputs":[{"name":"","type":"uint256","internalType":"uint256"}],"stateMutability":"view"},{"type":"function","name":"isFeedFresh","inputs":[],"outputs":[{"name":"","type":"bool","internalType":"bool"}],"stateMutability":"view"},{"type":"function","name":"lastUpdateGasUsed","inputs":[],"outputs":[{"name":"","type":"uint256","internalType":"uint256"}],"stateMutability":"view"},{"type":"function","name":"latestRoundData","inputs":[],"outputs":[{"name":"roundId","type":"uint80","internalType":"uint80"},{"name":"answer","type":"int256","internalType":"int256"},{"name":"startedAt","type":"uint256","internalType":"uint256"},{"name":"updatedAt","type":"uint256","internalType":"uint256"},{"name":"answeredInRound","type":"uint80","internalType":"uint80"}],"stateMutability":"view"},{"type":"function","name":"owner","inputs":[],"outputs":[{"name":"","type":"address","internalType":"address"}],"stateMutability":"view"},{"type":"function","name":"pause","inputs":[],"outputs":[],"stateMutability":"nonpayable"},{"type":"function","name":"paused","inputs":[],"outputs":[{"name":"","type":"bool","internalType":"bool"}],"stateMutability":"view"},{"type":"function","name":"removeAuthorizedSender","inputs":[{"name":"sender","type":"address","internalType":"address"}],"outputs":[],"stateMutability":"nonpayable"},{"type":"function","name":"timeSinceUpdate","inputs":[],"outputs":[{"name":"","type":"uint256","internalType":"uint256"}],"stateMutability":"view"},{"type":"function","name":"totalUpdates","inputs":[],"outputs":[{"name":"","type":"uint256","internalType":"uint256"}],"stateMutability":"view"},{"type":"function","name":"transferOwnership","inputs":[{"name":"newOwner","type":"address","internalType":"address"}],"outputs":[],"stateMutability":"nonpayable"},{"type":"function","name":"unpause","inputs":[],"outputs":[],"stateMutability":"nonpayable"},{"type":"function","name":"updateDescription","inputs":[{"name":"newDescription","type":"string","internalType":"string"}],"outputs":[],"stateMutability":"nonpayable"},{"type":"function","name":"updateRoundData","inputs":[{"name":"roundId","type":"uint80","internalType":"uint80"},{"name":"answer","type":"int256","internalType":"int256"},{"name":"updatedAt","type":"uint256","internalType":"uint256"},{"name":"answeredInRound","type":"uint80","internalType":"uint80"}],"outputs":[],"stateMutability":"nonpayable"},{"type":"function","name":"version","inputs":[],"outputs":[{"name":"","type":"uint256","internalType":"uint256"}],"stateMutability":"pure"},{"type":"event","name":"AnswerUpdated","inputs":[{"name":"current","type":"int256","indexed":true,"internalType":"int256"},{"name":"roundId","type":"uint256","indexed":true,"internalType":"uint256"},{"name":"updatedAt","type":"uint256","indexed":false,"internalType":"uint256"}],"anonymous":false},{"type":"event","name":"AuthorizedSenderUpdated","inputs":[{"name":"sender","type":"address","indexed":true,"internalType":"address"},{"name":"authorized","type":"bool","indexed":false,"internalType":"bool"}],"anonymous":false},{"type":"event","name":"EmergencyPaused","inputs":[{"name":"by","type":"address","indexed":true,"internalType":"address"}],"anonymous":false},{"type":"event","name":"EmergencyUnpaused","inputs":[{"name":"by","type":"address","indexed":true,"internalType":"address"}],"anonymous":false},{"type":"event","name":"NewRound","inputs":[{"name":"roundId","type":"uint256","indexed":true,"internalType":"uint256"},{"name":"startedBy","type":"address","indexed":true,"internalType":"address"},{"name":"startedAt","type":"uint256","indexed":false,"internalType":"uint256"}],"anonymous":false},{"type":"event","name":"OwnershipTransferred","inputs":[{"name":"previousOwner","type":"address","indexed":true,"internalType":"address"},{"name":"newOwner","type":"address","indexed":true,"internalType":"address"}],"anonymous":false},{"type":"event","name":"StaleDataRejected","inputs":[{"name":"roundId","type":"uint80","indexed":false,"internalType":"uint80"},{"name":"timeSinceUpdate","type":"uint256","indexed":false,"internalType":"uint256"}],"anonymous":false},{"type":"error","name":"InvalidAddress","inputs":[]},{"type":"error","name":"InvalidAnswer","inputs":[]},{"type":"error","name":"InvalidRound","inputs":[]},{"type":"error","name":"NoDataAvailable","inputs":[]},{"type":"error","name":"Paused","inputs":[]},{"type":"error","name":"StaleData","inputs":[]},{"type":"error","name":"Unauthorized","inputs":[]}],"bytecode":{"object":"0x60c060405234801561000f575f5ffd5b5060405161129d38038061129d83398101604081905261002e91610092565b805f0361004e57604051635afb8d1760e11b815260040160405180910390fd5b600680546001600160a01b0319163317905560ff83166080525f61007283826101ea565b5060a052506102a49050565b634e487b7160e01b5f52604160045260245ffd5b5f5f5f606084860312156100a4575f5ffd5b835160ff811681146100b4575f5ffd5b60208501519093506001600160401b038111156100cf575f5ffd5b8401601f810186136100df575f5ffd5b80516001600160401b038111156100f8576100f861007e565b604051601f8201601f19908116603f011681016001600160401b03811182821017156101265761012661007e565b60405281815282820160200188101561013d575f5ffd5b8160208401602083015e5f91810160200191909152604095909501519396949550929392505050565b600181811c9082168061017a57607f821691505b60208210810361019857634e487b7160e01b5f52602260045260245ffd5b50919050565b601f8211156101e557805f5260205f20601f840160051c810160208510156101c35750805b601f840160051c820191505b818110156101e2575f81556001016101cf565b50505b505050565b81516001600160401b038111156102035761020361007e565b610217816102118454610166565b8461019e565b6020601f821160018114610249575f83156102325750848201515b5f19600385901b1c1916600184901b1784556101e2565b5f84815260208120601f198516915b828110156102785787850151825560209485019460019092019101610258565b508482101561029557868401515f19600387901b60f8161c191681555b50505050600190811b01905550565b60805160a051610fc36102da5f395f81816101a2015281816104160152818161093c0152610b8b01525f6101610152610fc35ff3fe608060405234801561000f575f5ffd5b5060043610610132575f3560e01c80638456cb59116100b4578063cbd5796711610079578063cbd57967146102d3578063e735b48a146102e6578063f2fde38b146102f9578063fa7229ee1461030c578063fb5746c11461031f578063feaf968c14610327575f5ffd5b80638456cb59146102295780638da5cb5b146102315780639a6fc8f51461025c578063b252720b146102a3578063c88036ee146102ca575f5ffd5b80633f4ba83a116100fa5780633f4ba83a146101c657806354fd4d50146101ce5780635c975abb146101d55780636f324967146101f25780637284e41614610214575f5ffd5b8063150ff4bd146101365780631b36949114610151578063313ce5671461015a578063388b6e861461018b5780633defb962146101a0575b5f5ffd5b61013e61032f565b6040519081526020015b60405180910390f35b61013e60095481565b60405160ff7f0000000000000000000000000000000000000000000000000000000000000000168152602001610148565b61019e610199366004610c6d565b61035e565b005b7f000000000000000000000000000000000000000000000000000000000000000061013e565b61019e6106df565b600161013e565b6008546101e29060ff1681565b6040519015158152602001610148565b6101e2610200366004610cb0565b60076020525f908152604090205460ff1681565b61021c61073f565b6040516101489190610cdd565b61019e6107ce565b600654610244906001600160a01b031681565b6040516001600160a01b039091168152602001610148565b61026f61026a366004610d12565b610831565b604080516001600160501b03968716815260208101959095528401929092526060830152909116608082015260a001610148565b6102ab6108e7565b6040805193151584526020840192909252151590820152606001610148565b61013e600a5481565b61019e6102e1366004610cb0565b61096f565b61019e6102f4366004610d3f565b6109ee565b61019e610307366004610cb0565b610a27565b61019e61031a366004610cb0565b610ac9565b6101e2610b70565b61026f610bc2565b6003545f9063ffffffff16810361034657505f1990565b6003546103599063ffffffff1642610e06565b905090565b335f9081526007602052604090205460ff1661038c576040516282b42960e81b815260040160405180910390fd5b60085460ff16156103b0576040516313d0ff5960e31b815260040160405180910390fd5b5f5a6001549091506001600160501b03908116908616116103e4576040516328ad4a9560e21b815260040160405180910390fd5b5f841361040457604051635afb8d1760e11b815260040160405180910390fd5b5f61040f8442610e06565b905061043c7f00000000000000000000000000000000000000000000000000000000000000006002610e1f565b81111561049e57604080516001600160501b0388168152602081018390527f54636bd15124fdec1f5e6ed88f3ac8bdcd1ee627533fd5ad87d9dd740f0be0f0910160405180910390a1604051636ead710b60e01b815260040160405180910390fd5b5f6040518060a00160405280886001600160501b03168152602001856001600160501b031681526020018681526020018663ffffffff1681526020018781525090508060015f820151815f015f6101000a8154816001600160501b0302191690836001600160501b031602179055506020820151815f01600a6101000a8154816001600160501b0302191690836001600160501b03160217905550604082015181600101556060820151816002015f6101000a81548163ffffffff021916908363ffffffff160217905550608082015181600301559050508060055f896001600160501b03166001600160501b031681526020019081526020015f205f820151815f015f6101000a8154816001600160501b0302191690836001600160501b031602179055506020820151815f01600a6101000a8154816001600160501b0302191690836001600160501b03160217905550604082015181600101556060820151816002015f6101000a81548163ffffffff021916908363ffffffff1602179055506080820151816003015590505060095f81548092919061063f90610e36565b91905055505a61064f9084610e06565b600a5560405185815233906001600160501b038916907f0109fc6f55cf40689f02fbaad7af7fe7bbac8a3d2186600afc7d3e10cac602719060200160405180910390a3866001600160501b0316867f0559884fd3a460db3073b7fc896cc77986f16e378210ded43186175bf646fc5f876040516106ce91815260200190565b60405180910390a350505050505050565b6006546001600160a01b03163314610709576040516282b42960e81b815260040160405180910390fd5b6008805460ff1916905560405133907ff5cbf596165cc457b2cd92e8d8450827ee314968160a5696402d75766fc52caf905f90a2565b60605f805461074d90610e4e565b80601f016020809104026020016040519081016040528092919081815260200182805461077990610e4e565b80156107c45780601f1061079b576101008083540402835291602001916107c4565b820191905f5260205f20905b8154815290600101906020018083116107a757829003601f168201915b5050505050905090565b6006546001600160a01b031633146107f8576040516282b42960e81b815260040160405180910390fd5b6008805460ff1916600117905560405133907fb8fad2fa0ed7a383e747c309ef2c4391d7b65592a48893e57ccc1fab70791456905f90a2565b6001600160501b038082165f908152600560209081526040808320815160a08101835281548087168252600160501b900490951692850192909252600182015490840152600281015463ffffffff16606084018190526003909101546080840152909182918291829182919082036108bc57604051633bcb0ced60e11b815260040160405180910390fd5b805160808201516060830151602090930151919990985063ffffffff90921696508695509350915050565b6003545f908190819063ffffffff16156109135760035461090e9063ffffffff1642610e06565b610916565b5f195b60085490925060ff16158015610933575060035463ffffffff1615155b801561095f57507f00000000000000000000000000000000000000000000000000000000000000008211155b600854909492935060ff16919050565b6006546001600160a01b03163314610999576040516282b42960e81b815260040160405180910390fd5b6001600160a01b0381165f818152600760209081526040808320805460ff19169055519182527f9316df45c3226259b8d7f2d32687edb5a88141d5f47d0d6b67b927f3030c66d191015b60405180910390a250565b6006546001600160a01b03163314610a18576040516282b42960e81b815260040160405180910390fd5b5f610a238282610ed2565b5050565b6006546001600160a01b03163314610a51576040516282b42960e81b815260040160405180910390fd5b6001600160a01b038116610a785760405163e6c4247b60e01b815260040160405180910390fd5b600680546001600160a01b038381166001600160a01b0319831681179093556040519116919082907f8be0079c531659141344cd1fd0a4f28419497f9722a3daafe3b4186f6b6457e0905f90a35050565b6006546001600160a01b03163314610af3576040516282b42960e81b815260040160405180910390fd5b6001600160a01b038116610b1a5760405163e6c4247b60e01b815260040160405180910390fd5b6001600160a01b0381165f81815260076020908152604091829020805460ff1916600190811790915591519182527f9316df45c3226259b8d7f2d32687edb5a88141d5f47d0d6b67b927f3030c66d191016109e3565b6003545f9063ffffffff168103610b8657505f90565b6003547f000000000000000000000000000000000000000000000000000000000000000090610bbb9063ffffffff1642610e06565b1115905090565b6003545f90819081908190819063ffffffff168103610bf457604051633bcb0ced60e11b815260040160405180910390fd5b50506040805160a0810182526001546001600160501b03808216808452600160501b90920416602083018190526002549383019390935260035463ffffffff1660608301819052600454608090930183905290969195509350839250565b80356001600160501b0381168114610c68575f5ffd5b919050565b5f5f5f5f60808587031215610c80575f5ffd5b610c8985610c52565b93506020850135925060408501359150610ca560608601610c52565b905092959194509250565b5f60208284031215610cc0575f5ffd5b81356001600160a01b0381168114610cd6575f5ffd5b9392505050565b602081525f82518060208401528060208501604085015e5f604082850101526040601f19601f83011684010191505092915050565b5f60208284031215610d22575f5ffd5b610cd682610c52565b634e487b7160e01b5f52604160045260245ffd5b5f60208284031215610d4f575f5ffd5b813567ffffffffffffffff811115610d65575f5ffd5b8201601f81018413610d75575f5ffd5b803567ffffffffffffffff811115610d8f57610d8f610d2b565b604051601f8201601f19908116603f0116810167ffffffffffffffff81118282101715610dbe57610dbe610d2b565b604052818152828201602001861015610dd5575f5ffd5b816020840160208301375f91810160200191909152949350505050565b634e487b7160e01b5f52601160045260245ffd5b81810381811115610e1957610e19610df2565b92915050565b8082028115828204841417610e1957610e19610df2565b5f60018201610e4757610e47610df2565b5060010190565b600181811c90821680610e6257607f821691505b602082108103610e8057634e487b7160e01b5f52602260045260245ffd5b50919050565b601f821115610ecd57805f5260205f20601f840160051c81016020851015610eab5750805b601f840160051c820191505b81811015610eca575f8155600101610eb7565b50505b505050565b815167ffffffffffffffff811115610eec57610eec610d2b565b610f0081610efa8454610e4e565b84610e86565b6020601f821160018114610f32575f8315610f1b5750848201515b5f19600385901b1c1916600184901b178455610eca565b5f84815260208120601f198516915b82811015610f615787850151825560209485019460019092019101610f41565b5084821015610f7e57868401515f19600387901b60f8161c191681555b50505050600190811b0190555056fea2646970667358221220aca657dfb869a937ed996c4d8c14ee957d420b253514467cba681c72d8c7580364736f6c634300081e0033","linkReferences":{}},"methodIdentifiers":{"addAuthorizedSender(address)":"fa7229ee","authorizedSenders(address)":"6f324967","decimals()":"313ce567","description()":"7284e416","getRoundData(uint80)":"9a6fc8f5","healthCheck()":"b252720b","heartbeat()":"3defb962","isFeedFresh()":"fb5746c1","lastUpdateGasUsed()":"c88036ee","latestRoundData()":"feaf968c","owner()":"8da5cb5b","pause()":"8456cb59","paused()":"5c975abb","removeAuthorizedSender(address)":"cbd57967","timeSinceUpdate()":"150ff4bd","totalUpdates()":"1b369491","transferOwnership(address)":"f2fde38b","unpause()":"3f4ba83a","updateDescription(string)":"e735b48a","updateRoundData(uint80,int256,uint256,uint80)":"388b6e86","version()":"54fd4d50"},"id":0}