{
  "_format": "hh3-artifact-1",
  "contractName": "ChainlinkFeedReactor",
  "sourceName": "contracts/reactive/ChainlinkFeedReactor.sol",
  "abi": [
    {
      "inputs": [
        {
          "internalType": "address",
          "name": "_service",
          "type": "address"
        }
      ],
      "stateMutability": "payable",
      "type": "constructor"
    },
    {
      "anonymous": false,
      "inputs": [
        {
          "indexed": true,
          "internalType": "uint256",
          "name": "chain_id",
          "type": "uint256"
        },
        {
          "indexed": true,
          "internalType": "address",
          "name": "_contract",
          "type": "address"
        },
        {
          "indexed": true,
          "internalType": "uint64",
          "name": "gas_limit",
          "type": "uint64"
        },
        {
          "indexed": false,
          "internalType": "bytes",
          "name": "payload",
          "type": "bytes"
        }
      ],
      "name": "Callback",
      "type": "event"
    },
    {
      "anonymous": false,
      "inputs": [
        {
          "indexed": true,
          "internalType": "bytes32",
          "name": "feedId",
          "type": "bytes32"
        },
        {
          "indexed": false,
          "internalType": "uint64",
          "name": "originChainId",
          "type": "uint64"
        },
        {
          "indexed": false,
          "internalType": "address",
          "name": "feedAddress",
          "type": "address"
        },
        {
          "indexed": false,
          "internalType": "uint64",
          "name": "destinationChainId",
          "type": "uint64"
        },
        {
          "indexed": false,
          "internalType": "address",
          "name": "destinationProxy",
          "type": "address"
        }
      ],
      "name": "FeedRegistered",
      "type": "event"
    },
    {
      "anonymous": false,
      "inputs": [
        {
          "indexed": true,
          "internalType": "bytes32",
          "name": "feedId",
          "type": "bytes32"
        },
        {
          "indexed": false,
          "internalType": "uint80",
          "name": "roundId",
          "type": "uint80"
        },
        {
          "indexed": false,
          "internalType": "int256",
          "name": "price",
          "type": "int256"
        },
        {
          "indexed": false,
          "internalType": "uint256",
          "name": "updatedAt",
          "type": "uint256"
        },
        {
          "indexed": false,
          "internalType": "enum IChainlinkFeedReactorEvents.UpdateReason",
          "name": "reason",
          "type": "uint8"
        }
      ],
      "name": "UpdateForwarded",
      "type": "event"
    },
    {
      "anonymous": false,
      "inputs": [
        {
          "indexed": true,
          "internalType": "bytes32",
          "name": "feedId",
          "type": "bytes32"
        },
        {
          "indexed": false,
          "internalType": "uint80",
          "name": "roundId",
          "type": "uint80"
        },
        {
          "indexed": false,
          "internalType": "int256",
          "name": "price",
          "type": "int256"
        },
        {
          "indexed": false,
          "internalType": "enum IChainlinkFeedReactorEvents.SkipReason",
          "name": "reason",
          "type": "uint8"
        }
      ],
      "name": "UpdateSkipped",
      "type": "event"
    },
    {
      "inputs": [
        {
          "internalType": "uint256",
          "name": "",
          "type": "uint256"
        }
      ],
      "name": "feedIds",
      "outputs": [
        {
          "internalType": "bytes32",
          "name": "",
          "type": "bytes32"
        }
      ],
      "stateMutability": "view",
      "type": "function"
    },
    {
      "inputs": [
        {
          "internalType": "bytes32",
          "name": "",
          "type": "bytes32"
        }
      ],
      "name": "feeds",
      "outputs": [
        {
          "internalType": "uint64",
          "name": "originChainId",
          "type": "uint64"
        },
        {
          "internalType": "address",
          "name": "feedAddress",
          "type": "address"
        },
        {
          "internalType": "uint64",
          "name": "destinationChainId",
          "type": "uint64"
        },
        {
          "internalType": "address",
          "name": "destinationProxy",
          "type": "address"
        },
        {
          "internalType": "uint8",
          "name": "decimals",
          "type": "uint8"
        },
        {
          "internalType": "string",
          "name": "description",
          "type": "string"
        },
        {
          "internalType": "uint256",
          "name": "deviationThreshold",
          "type": "uint256"
        },
        {
          "internalType": "uint256",
          "name": "heartbeat",
          "type": "uint256"
        },
        {
          "internalType": "int256",
          "name": "lastSentPrice",
          "type": "int256"
        },
        {
          "internalType": "uint256",
          "name": "lastSentTime",
          "type": "uint256"
        },
        {
          "internalType": "uint80",
          "name": "lastProcessedRoundId",
          "type": "uint80"
        },
        {
          "internalType": "bool",
          "name": "active",
          "type": "bool"
        }
      ],
      "stateMutability": "view",
      "type": "function"
    },
    {
      "inputs": [],
      "name": "getAllFeeds",
      "outputs": [
        {
          "internalType": "bytes32[]",
          "name": "",
          "type": "bytes32[]"
        }
      ],
      "stateMutability": "view",
      "type": "function"
    },
    {
      "inputs": [
        {
          "internalType": "bytes32",
          "name": "feedId",
          "type": "bytes32"
        }
      ],
      "name": "getEfficiency",
      "outputs": [
        {
          "internalType": "uint256",
          "name": "forwardRate",
          "type": "uint256"
        },
        {
          "internalType": "uint256",
          "name": "gasSaved",
          "type": "uint256"
        }
      ],
      "stateMutability": "view",
      "type": "function"
    },
    {
      "inputs": [
        {
          "internalType": "bytes32",
          "name": "feedId",
          "type": "bytes32"
        }
      ],
      "name": "getFeedConfig",
      "outputs": [
        {
          "components": [
            {
              "internalType": "uint64",
              "name": "originChainId",
              "type": "uint64"
            },
            {
              "internalType": "address",
              "name": "feedAddress",
              "type": "address"
            },
            {
              "internalType": "uint64",
              "name": "destinationChainId",
              "type": "uint64"
            },
            {
              "internalType": "address",
              "name": "destinationProxy",
              "type": "address"
            },
            {
              "internalType": "uint8",
              "name": "decimals",
              "type": "uint8"
            },
            {
              "internalType": "string",
              "name": "description",
              "type": "string"
            },
            {
              "internalType": "uint256",
              "name": "deviationThreshold",
              "type": "uint256"
            },
            {
              "internalType": "uint256",
              "name": "heartbeat",
              "type": "uint256"
            },
            {
              "internalType": "int256",
              "name": "lastSentPrice",
              "type": "int256"
            },
            {
              "internalType": "uint256",
              "name": "lastSentTime",
              "type": "uint256"
            },
            {
              "internalType": "uint80",
              "name": "lastProcessedRoundId",
              "type": "uint80"
            },
            {
              "internalType": "bool",
              "name": "active",
              "type": "bool"
            }
          ],
          "internalType": "struct ChainlinkFeedReactor.FeedConfig",
          "name": "",
          "type": "tuple"
        }
      ],
      "stateMutability": "view",
      "type": "function"
    },
    {
      "inputs": [],
      "name": "getFeedCount",
      "outputs": [
        {
          "internalType": "uint256",
          "name": "",
          "type": "uint256"
        }
      ],
      "stateMutability": "view",
      "type": "function"
    },
    {
      "inputs": [
        {
          "internalType": "bytes32",
          "name": "feedId",
          "type": "bytes32"
        }
      ],
      "name": "getFeedMetrics",
      "outputs": [
        {
          "components": [
            {
              "internalType": "uint256",
              "name": "totalEventsReceived",
              "type": "uint256"
            },
            {
              "internalType": "uint256",
              "name": "updatesForwarded",
              "type": "uint256"
            },
            {
              "internalType": "uint256",
              "name": "updatesSkipped",
              "type": "uint256"
            },
            {
              "internalType": "uint256",
              "name": "deviationTriggered",
              "type": "uint256"
            },
            {
              "internalType": "uint256",
              "name": "heartbeatTriggered",
              "type": "uint256"
            },
            {
              "internalType": "uint256",
              "name": "estimatedGasSaved",
              "type": "uint256"
            }
          ],
          "internalType": "struct ChainlinkFeedReactor.FeedMetrics",
          "name": "",
          "type": "tuple"
        }
      ],
      "stateMutability": "view",
      "type": "function"
    },
    {
      "inputs": [],
      "name": "getGlobalStats",
      "outputs": [
        {
          "internalType": "uint256",
          "name": "totalEvents",
          "type": "uint256"
        },
        {
          "internalType": "uint256",
          "name": "totalForwarded",
          "type": "uint256"
        },
        {
          "internalType": "uint256",
          "name": "totalSkipped",
          "type": "uint256"
        },
        {
          "internalType": "uint256",
          "name": "totalGasSaved",
          "type": "uint256"
        },
        {
          "internalType": "uint256",
          "name": "avgForwardRate",
          "type": "uint256"
        }
      ],
      "stateMutability": "view",
      "type": "function"
    },
    {
      "inputs": [
        {
          "internalType": "bytes32",
          "name": "",
          "type": "bytes32"
        }
      ],
      "name": "metrics",
      "outputs": [
        {
          "internalType": "uint256",
          "name": "totalEventsReceived",
          "type": "uint256"
        },
        {
          "internalType": "uint256",
          "name": "updatesForwarded",
          "type": "uint256"
        },
        {
          "internalType": "uint256",
          "name": "updatesSkipped",
          "type": "uint256"
        },
        {
          "internalType": "uint256",
          "name": "deviationTriggered",
          "type": "uint256"
        },
        {
          "internalType": "uint256",
          "name": "heartbeatTriggered",
          "type": "uint256"
        },
        {
          "internalType": "uint256",
          "name": "estimatedGasSaved",
          "type": "uint256"
        }
      ],
      "stateMutability": "view",
      "type": "function"
    },
    {
      "inputs": [],
      "name": "owner",
      "outputs": [
        {
          "internalType": "address",
          "name": "",
          "type": "address"
        }
      ],
      "stateMutability": "view",
      "type": "function"
    },
    {
      "inputs": [
        {
          "internalType": "uint256",
          "name": "amount",
          "type": "uint256"
        }
      ],
      "name": "pay",
      "outputs": [],
      "stateMutability": "nonpayable",
      "type": "function"
    },
    {
      "inputs": [
        {
          "internalType": "bytes32",
          "name": "feedId",
          "type": "bytes32"
        },
        {
          "internalType": "uint80",
          "name": "roundId",
          "type": "uint80"
        },
        {
          "internalType": "int256",
          "name": "answer",
          "type": "int256"
        },
        {
          "internalType": "uint256",
          "name": "updatedAt",
          "type": "uint256"
        },
        {
          "internalType": "uint80",
          "name": "answeredInRound",
          "type": "uint80"
        }
      ],
      "name": "pollFeed",
      "outputs": [],
      "stateMutability": "nonpayable",
      "type": "function"
    },
    {
      "inputs": [
        {
          "components": [
            {
              "internalType": "uint256",
              "name": "chain_id",
              "type": "uint256"
            },
            {
              "internalType": "address",
              "name": "_contract",
              "type": "address"
            },
            {
              "internalType": "uint256",
              "name": "topic_0",
              "type": "uint256"
            },
            {
              "internalType": "uint256",
              "name": "topic_1",
              "type": "uint256"
            },
            {
              "internalType": "uint256",
              "name": "topic_2",
              "type": "uint256"
            },
            {
              "internalType": "uint256",
              "name": "topic_3",
              "type": "uint256"
            },
            {
              "internalType": "bytes",
              "name": "data",
              "type": "bytes"
            },
            {
              "internalType": "uint256",
              "name": "block_number",
              "type": "uint256"
            },
            {
              "internalType": "uint256",
              "name": "op_code",
              "type": "uint256"
            },
            {
              "internalType": "uint256",
              "name": "block_hash",
              "type": "uint256"
            },
            {
              "internalType": "uint256",
              "name": "tx_hash",
              "type": "uint256"
            },
            {
              "internalType": "uint256",
              "name": "log_index",
              "type": "uint256"
            }
          ],
          "internalType": "struct IReactive.LogRecord",
          "name": "log",
          "type": "tuple"
        }
      ],
      "name": "react",
      "outputs": [],
      "stateMutability": "nonpayable",
      "type": "function"
    },
    {
      "inputs": [
        {
          "internalType": "uint64",
          "name": "originChainId",
          "type": "uint64"
        },
        {
          "internalType": "address",
          "name": "feedAddress",
          "type": "address"
        },
        {
          "internalType": "uint64",
          "name": "destinationChainId",
          "type": "uint64"
        },
        {
          "internalType": "address",
          "name": "destinationProxy",
          "type": "address"
        },
        {
          "internalType": "uint8",
          "name": "decimals",
          "type": "uint8"
        },
        {
          "internalType": "string",
          "name": "description",
          "type": "string"
        },
        {
          "internalType": "uint256",
          "name": "deviationThreshold",
          "type": "uint256"
        },
        {
          "internalType": "uint256",
          "name": "heartbeat",
          "type": "uint256"
        }
      ],
      "name": "registerFeed",
      "outputs": [
        {
          "internalType": "bytes32",
          "name": "",
          "type": "bytes32"
        }
      ],
      "stateMutability": "nonpayable",
      "type": "function"
    },
    {
      "inputs": [
        {
          "internalType": "uint64",
          "name": "originChainId",
          "type": "uint64"
        },
        {
          "internalType": "address",
          "name": "feedAddress",
          "type": "address"
        },
        {
          "internalType": "uint64",
          "name": "destinationChainId",
          "type": "uint64"
        },
        {
          "internalType": "address",
          "name": "destinationProxy",
          "type": "address"
        },
        {
          "internalType": "uint8",
          "name": "decimals",
          "type": "uint8"
        },
        {
          "internalType": "string",
          "name": "description",
          "type": "string"
        }
      ],
      "name": "registerFeedDefault",
      "outputs": [
        {
          "internalType": "bytes32",
          "name": "",
          "type": "bytes32"
        }
      ],
      "stateMutability": "nonpayable",
      "type": "function"
    },
    {
      "inputs": [],
      "name": "service",
      "outputs": [
        {
          "internalType": "contract ISystemContract",
          "name": "",
          "type": "address"
        }
      ],
      "stateMutability": "view",
      "type": "function"
    },
    {
      "inputs": [
        {
          "internalType": "bytes32",
          "name": "feedId",
          "type": "bytes32"
        },
        {
          "internalType": "bool",
          "name": "active",
          "type": "bool"
        }
      ],
      "name": "setFeedActive",
      "outputs": [],
      "stateMutability": "nonpayable",
      "type": "function"
    },
    {
      "inputs": [
        {
          "internalType": "address",
          "name": "newOwner",
          "type": "address"
        }
      ],
      "name": "transferOwnership",
      "outputs": [],
      "stateMutability": "nonpayable",
      "type": "function"
    },
    {
      "inputs": [
        {
          "internalType": "bytes32",
          "name": "feedId",
          "type": "bytes32"
        },
        {
          "internalType": "uint256",
          "name": "deviationThreshold",
          "type": "uint256"
        },
        {
          "internalType": "uint256",
          "name": "heartbeat",
          "type": "uint256"
        }
      ],
      "name": "updateFeedConfig",
      "outputs": [],
      "stateMutability": "nonpayable",
      "type": "function"
    },
    {
      "stateMutability": "payable",
      "type": "receive"
    }
  ],
  "bytecode": "0x60a06040526040516149363803806149368339818101604052810190610025919061016b565b5f73ffffffffffffffffffffffffffffffffffffffff168173ffffffffffffffffffffffffffffffffffffffff1603610093576040517f08c379a000000000000000000000000000000000000000000000000000000000815260040161008a906101f0565b60405180910390fd5b8073ffffffffffffffffffffffffffffffffffffffff1660808173ffffffffffffffffffffffffffffffffffffffff16815250503360035f6101000a81548173ffffffffffffffffffffffffffffffffffffffff021916908373ffffffffffffffffffffffffffffffffffffffff1602179055505061020e565b5f5ffd5b5f73ffffffffffffffffffffffffffffffffffffffff82169050919050565b5f61013a82610111565b9050919050565b61014a81610130565b8114610154575f5ffd5b50565b5f8151905061016581610141565b92915050565b5f602082840312156101805761017f61010d565b5b5f61018d84828501610157565b91505092915050565b5f82825260208201905092915050565b7f53797374656d20636f6e747261637420616464726573732072657175697265645f82015250565b5f6101da602083610196565b91506101e5826101a6565b602082019050919050565b5f6020820190508181035f830152610207816101ce565b9050919050565b60805161470961022d5f395f81816123cd01526125a301526147095ff3fe608060405260043610610117575f3560e01c80639c65e1d81161009f578063dcaa79af11610063578063dcaa79af146103d9578063e90f1a431461041a578063edd3a54714610461578063ef04718714610489578063f2fde38b146104b15761011e565b80639c65e1d8146102d3578063a6ecc2031461030f578063b7f433d11461034b578063c290d69114610387578063d598d4c9146103af5761011e565b80632cc9dfb3116100e65780632cc9dfb3146101d85780633e68080a146102025780636b4169c31461023f5780638da5cb5b1461026d578063942bc3db146102975761011e565b806309b80aa8146101225780630d152c2c1461014a57806312876798146101725780632521adbd1461019c5761011e565b3661011e57005b5f5ffd5b34801561012d575f5ffd5b5061014860048036038101906101439190612ee1565b6104d9565b005b348015610155575f5ffd5b50610170600480360381019061016b9190612f7b565b610ec2565b005b34801561017d575f5ffd5b50610186611887565b6040516101939190613079565b60405180910390f35b3480156101a7575f5ffd5b506101c260048036038101906101bd9190613099565b6118dd565b6040516101cf91906132f8565b60405180910390f35b3480156101e3575f5ffd5b506101ec611b3b565b6040516101f99190613327565b60405180910390f35b34801561020d575f5ffd5b5061022860048036038101906102239190613099565b611b47565b604051610236929190613340565b60405180910390f35b34801561024a575f5ffd5b50610253611be8565b604051610264959493929190613367565b60405180910390f35b348015610278575f5ffd5b50610281611cf5565b60405161028e91906133c7565b60405180910390f35b3480156102a2575f5ffd5b506102bd60048036038101906102b891906134bf565b611d1a565b6040516102ca9190613578565b60405180910390f35b3480156102de575f5ffd5b506102f960048036038101906102f49190613591565b611e43565b6040516103069190613578565b60405180910390f35b34801561031a575f5ffd5b5061033560048036038101906103309190613099565b612518565b60405161034291906136da565b60405180910390f35b348015610356575f5ffd5b50610371600480360381019061036c91906136f3565b61257e565b60405161037e9190613578565b60405180910390f35b348015610392575f5ffd5b506103ad60048036038101906103a891906136f3565b61259e565b005b3480156103ba575f5ffd5b506103c36125a1565b6040516103d09190613779565b60405180910390f35b3480156103e4575f5ffd5b506103ff60048036038101906103fa9190613099565b6125c5565b60405161041196959493929190613792565b60405180910390f35b348015610425575f5ffd5b50610440600480360381019061043b9190613099565b6125fd565b6040516104589c9b9a99989796959493929190613884565b60405180910390f35b34801561046c575f5ffd5b506104876004803603810190610482919061396d565b612772565b005b348015610494575f5ffd5b506104af60048036038101906104aa91906139ab565b612830565b005b3480156104bc575f5ffd5b506104d760048036038101906104d291906139fb565b61297e565b005b5f5f5f8781526020019081526020015f2090505f60015f8881526020019081526020015f20905081600701600a9054906101000a900460ff16801561056d57505f73ffffffffffffffffffffffffffffffffffffffff16825f0160089054906101000a900473ffffffffffffffffffffffffffffffffffffffff1673ffffffffffffffffffffffffffffffffffffffff1614155b6105ac576040517f08c379a00000000000000000000000000000000000000000000000000000000081526004016105a390613a70565b60405180910390fd5b816007015f9054906101000a900469ffffffffffffffffffff1669ffffffffffffffffffff168669ffffffffffffffffffff16116105eb575050610ebb565b85826007015f6101000a81548169ffffffffffffffffffff021916908369ffffffffffffffffffff160217905550805f015f81548092919061062c90613abb565b91905055505f851361069557867f214c8faf3811348d6be0537c6644d113435af6f4df317ae2fe38e19ea51ca46c8787600260405161066d93929190613b75565b60405180910390a2806002015f81548092919061068990613abb565b91905055505050610ebb565b5f5f6108e184604051806101800160405290815f82015f9054906101000a900467ffffffffffffffff1667ffffffffffffffff1667ffffffffffffffff1681526020015f820160089054906101000a900473ffffffffffffffffffffffffffffffffffffffff1673ffffffffffffffffffffffffffffffffffffffff1673ffffffffffffffffffffffffffffffffffffffff168152602001600182015f9054906101000a900467ffffffffffffffff1667ffffffffffffffff1667ffffffffffffffff1681526020016001820160089054906101000a900473ffffffffffffffffffffffffffffffffffffffff1673ffffffffffffffffffffffffffffffffffffffff1673ffffffffffffffffffffffffffffffffffffffff16815260200160018201601c9054906101000a900460ff1660ff1660ff1681526020016002820180546107e090613bd7565b80601f016020809104026020016040519081016040528092919081815260200182805461080c90613bd7565b80156108575780601f1061082e57610100808354040283529160200191610857565b820191905f5260205f20905b81548152906001019060200180831161083a57829003601f168201915b5050505050815260200160038201548152602001600482015481526020016005820154815260200160068201548152602001600782015f9054906101000a900469ffffffffffffffffffff1669ffffffffffffffffffff1669ffffffffffffffffffff16815260200160078201600a9054906101000a900460ff1615151515815250508888612abe565b9150915081610bae57887f214c8faf3811348d6be0537c6644d113435af6f4df317ae2fe38e19ea51ca46c8989610b5888604051806101800160405290815f82015f9054906101000a900467ffffffffffffffff1667ffffffffffffffff1667ffffffffffffffff1681526020015f820160089054906101000a900473ffffffffffffffffffffffffffffffffffffffff1673ffffffffffffffffffffffffffffffffffffffff1673ffffffffffffffffffffffffffffffffffffffff168152602001600182015f9054906101000a900467ffffffffffffffff1667ffffffffffffffff1667ffffffffffffffff1681526020016001820160089054906101000a900473ffffffffffffffffffffffffffffffffffffffff1673ffffffffffffffffffffffffffffffffffffffff1673ffffffffffffffffffffffffffffffffffffffff16815260200160018201601c9054906101000a900460ff1660ff1660ff168152602001600282018054610a5790613bd7565b80601f0160208091040260200160405190810160405280929190818152602001828054610a8390613bd7565b8015610ace5780601f10610aa557610100808354040283529160200191610ace565b820191905f5260205f20905b815481529060010190602001808311610ab157829003601f168201915b5050505050815260200160038201548152602001600482015481526020016005820154815260200160068201548152602001600782015f9054906101000a900469ffffffffffffffffffff1669ffffffffffffffffffff1669ffffffffffffffffffff16815260200160078201600a9054906101000a900460ff1615151515815250508c8c612b3b565b604051610b6793929190613b75565b60405180910390a2826002015f815480929190610b8390613abb565b919050555062030d40836005015f828254610b9e9190613c07565b9250508190555050505050610ebb565b610dfb84604051806101800160405290815f82015f9054906101000a900467ffffffffffffffff1667ffffffffffffffff1667ffffffffffffffff1681526020015f820160089054906101000a900473ffffffffffffffffffffffffffffffffffffffff1673ffffffffffffffffffffffffffffffffffffffff1673ffffffffffffffffffffffffffffffffffffffff168152602001600182015f9054906101000a900467ffffffffffffffff1667ffffffffffffffff1667ffffffffffffffff1681526020016001820160089054906101000a900473ffffffffffffffffffffffffffffffffffffffff1673ffffffffffffffffffffffffffffffffffffffff1673ffffffffffffffffffffffffffffffffffffffff16815260200160018201601c9054906101000a900460ff1660ff1660ff168152602001600282018054610cf790613bd7565b80601f0160208091040260200160405190810160405280929190818152602001828054610d2390613bd7565b8015610d6e5780601f10610d4557610100808354040283529160200191610d6e565b820191905f5260205f20905b815481529060010190602001808311610d5157829003601f168201915b5050505050815260200160038201548152602001600482015481526020016005820154815260200160068201548152602001600782015f9054906101000a900469ffffffffffffffffffff1669ffffffffffffffffffff1669ffffffffffffffffffff16815260200160078201600a9054906101000a900460ff1615151515815250508a8a8a8a86612b80565b868460050181905550428460060181905550826001015f815480929190610e2190613abb565b919050555060016002811115610e3a57610e39613b02565b5b816002811115610e4d57610e4c613b02565b5b03610e7057826003015f815480929190610e6690613abb565b9190505550610eb6565b600280811115610e8357610e82613b02565b5b816002811115610e9657610e95613b02565b5b03610eb557826004015f815480929190610eaf90613abb565b91905055505b5b505050505b5050505050565b5f816060013590505f826080013590505f838060c00190610ee39190613c46565b810190610ef091906136f3565b90505f845f0135856020016020810190610f0a91906139fb565b604051602001610f1b929190613d21565b6040516020818303038152906040528051906020012090505f5f5f8381526020019081526020015f2090505f60015f8481526020019081526020015f20905081600701600a9054906101000a900460ff161580610fc657505f73ffffffffffffffffffffffffffffffffffffffff16825f0160089054906101000a900473ffffffffffffffffffffffffffffffffffffffff1673ffffffffffffffffffffffffffffffffffffffff16145b15610fd657505050505050611884565b805f015f815480929190610fe990613abb565b91905055505f861361105657827f214c8faf3811348d6be0537c6644d113435af6f4df317ae2fe38e19ea51ca46c8688600260405161102a93929190613b75565b60405180910390a2806002015f81548092919061104690613abb565b9190505550505050505050611884565b5f5f6112a284604051806101800160405290815f82015f9054906101000a900467ffffffffffffffff1667ffffffffffffffff1667ffffffffffffffff1681526020015f820160089054906101000a900473ffffffffffffffffffffffffffffffffffffffff1673ffffffffffffffffffffffffffffffffffffffff1673ffffffffffffffffffffffffffffffffffffffff168152602001600182015f9054906101000a900467ffffffffffffffff1667ffffffffffffffff1667ffffffffffffffff1681526020016001820160089054906101000a900473ffffffffffffffffffffffffffffffffffffffff1673ffffffffffffffffffffffffffffffffffffffff1673ffffffffffffffffffffffffffffffffffffffff16815260200160018201601c9054906101000a900460ff1660ff1660ff1681526020016002820180546111a190613bd7565b80601f01602080910402602001604051908101604052809291908181526020018280546111cd90613bd7565b80156112185780601f106111ef57610100808354040283529160200191611218565b820191905f5260205f20905b8154815290600101906020018083116111fb57829003601f168201915b5050505050815260200160038201548152602001600482015481526020016005820154815260200160068201548152602001600782015f9054906101000a900469ffffffffffffffffffff1669ffffffffffffffffffff1669ffffffffffffffffffff16815260200160078201600a9054906101000a900460ff1615151515815250508988612abe565b915091508161157357847f214c8faf3811348d6be0537c6644d113435af6f4df317ae2fe38e19ea51ca46c888a61151988604051806101800160405290815f82015f9054906101000a900467ffffffffffffffff1667ffffffffffffffff1667ffffffffffffffff1681526020015f820160089054906101000a900473ffffffffffffffffffffffffffffffffffffffff1673ffffffffffffffffffffffffffffffffffffffff1673ffffffffffffffffffffffffffffffffffffffff168152602001600182015f9054906101000a900467ffffffffffffffff1667ffffffffffffffff1667ffffffffffffffff1681526020016001820160089054906101000a900473ffffffffffffffffffffffffffffffffffffffff1673ffffffffffffffffffffffffffffffffffffffff1673ffffffffffffffffffffffffffffffffffffffff16815260200160018201601c9054906101000a900460ff1660ff1660ff16815260200160028201805461141890613bd7565b80601f016020809104026020016040519081016040528092919081815260200182805461144490613bd7565b801561148f5780601f106114665761010080835404028352916020019161148f565b820191905f5260205f20905b81548152906001019060200180831161147257829003601f168201915b5050505050815260200160038201548152602001600482015481526020016005820154815260200160068201548152602001600782015f9054906101000a900469ffffffffffffffffffff1669ffffffffffffffffffff1669ffffffffffffffffffff16815260200160078201600a9054906101000a900460ff1615151515815250508d8c612b3b565b60405161152893929190613b75565b60405180910390a2826002015f81548092919061154490613abb565b919050555062030d40836005015f82825461155f9190613c07565b925050819055505050505050505050611884565b6117c084604051806101800160405290815f82015f9054906101000a900467ffffffffffffffff1667ffffffffffffffff1667ffffffffffffffff1681526020015f820160089054906101000a900473ffffffffffffffffffffffffffffffffffffffff1673ffffffffffffffffffffffffffffffffffffffff1673ffffffffffffffffffffffffffffffffffffffff168152602001600182015f9054906101000a900467ffffffffffffffff1667ffffffffffffffff1667ffffffffffffffff1681526020016001820160089054906101000a900473ffffffffffffffffffffffffffffffffffffffff1673ffffffffffffffffffffffffffffffffffffffff1673ffffffffffffffffffffffffffffffffffffffff16815260200160018201601c9054906101000a900460ff1660ff1660ff1681526020016002820180546116bc90613bd7565b80601f01602080910402602001604051908101604052809291908181526020018280546116e890613bd7565b80156117335780601f1061170a57610100808354040283529160200191611733565b820191905f5260205f20905b81548152906001019060200180831161171657829003601f168201915b5050505050815260200160038201548152602001600482015481526020016005820154815260200160068201548152602001600782015f9054906101000a900469ffffffffffffffffffff1669ffffffffffffffffffff1669ffffffffffffffffffff16815260200160078201600a9054906101000a900460ff16151515158152505086898b8a86612b80565b878460050181905550428460060181905550826001015f8154809291906117e690613abb565b9190505550600160028111156117ff576117fe613b02565b5b81600281111561181257611811613b02565b5b0361183557826003015f81548092919061182b90613abb565b919050555061187b565b60028081111561184857611847613b02565b5b81600281111561185b5761185a613b02565b5b0361187a57826004015f81548092919061187490613abb565b91905055505b5b50505050505050505b50565b606060028054806020026020016040519081016040528092919081815260200182805480156118d357602002820191905f5260205f20905b8154815260200190600101908083116118bf575b5050505050905090565b6118e5612d2a565b5f5f8381526020019081526020015f20604051806101800160405290815f82015f9054906101000a900467ffffffffffffffff1667ffffffffffffffff1667ffffffffffffffff1681526020015f820160089054906101000a900473ffffffffffffffffffffffffffffffffffffffff1673ffffffffffffffffffffffffffffffffffffffff1673ffffffffffffffffffffffffffffffffffffffff168152602001600182015f9054906101000a900467ffffffffffffffff1667ffffffffffffffff1667ffffffffffffffff1681526020016001820160089054906101000a900473ffffffffffffffffffffffffffffffffffffffff1673ffffffffffffffffffffffffffffffffffffffff1673ffffffffffffffffffffffffffffffffffffffff16815260200160018201601c9054906101000a900460ff1660ff1660ff168152602001600282018054611a3a90613bd7565b80601f0160208091040260200160405190810160405280929190818152602001828054611a6690613bd7565b8015611ab15780601f10611a8857610100808354040283529160200191611ab1565b820191905f5260205f20905b815481529060010190602001808311611a9457829003601f168201915b5050505050815260200160038201548152602001600482015481526020016005820154815260200160068201548152602001600782015f9054906101000a900469ffffffffffffffffffff1669ffffffffffffffffffff1669ffffffffffffffffffff16815260200160078201600a9054906101000a900460ff1615151515815250509050919050565b5f600280549050905090565b5f5f5f60015f8581526020019081526020015f206040518060c00160405290815f82015481526020016001820154815260200160028201548152602001600382015481526020016004820154815260200160058201548152505090505f815f015103611bb9575f5f9250925050611be3565b805f015160648260200151611bce9190613d4c565b611bd89190613dba565b92508060a001519150505b915091565b5f5f5f5f5f5f5f90505b600280549050811015611cca575f60015f60028481548110611c1757611c16613dea565b5b905f5260205f20015481526020019081526020015f206040518060c00160405290815f8201548152602001600182015481526020016002820154815260200160038201548152602001600482015481526020016005820154815250509050805f015187611c849190613c07565b9650806020015186611c969190613c07565b9550806040015185611ca89190613c07565b94508060a0015184611cba9190613c07565b9350508080600101915050611bf2565b505f851115611cee5784606485611ce19190613d4c565b611ceb9190613dba565b90505b9091929394565b60035f9054906101000a900473ffffffffffffffffffffffffffffffffffffffff1681565b5f60035f9054906101000a900473ffffffffffffffffffffffffffffffffffffffff1673ffffffffffffffffffffffffffffffffffffffff163373ffffffffffffffffffffffffffffffffffffffff1614611daa576040517f08c379a0000000000000000000000000000000000000000000000000000000008152600401611da190613e61565b60405180910390fd5b3073ffffffffffffffffffffffffffffffffffffffff16639c65e1d8898989898989896032610e106040518a63ffffffff1660e01b8152600401611df699989796959493929190613eb9565b6020604051808303815f875af1158015611e12573d5f5f3e3d5ffd5b505050506040513d601f19601f82011682018060405250810190611e369190613f52565b9050979650505050505050565b5f60035f9054906101000a900473ffffffffffffffffffffffffffffffffffffffff1673ffffffffffffffffffffffffffffffffffffffff163373ffffffffffffffffffffffffffffffffffffffff1614611ed3576040517f08c379a0000000000000000000000000000000000000000000000000000000008152600401611eca90613e61565b60405180910390fd5b5f73ffffffffffffffffffffffffffffffffffffffff168973ffffffffffffffffffffffffffffffffffffffff1603611f41576040517f08c379a0000000000000000000000000000000000000000000000000000000008152600401611f3890613fc7565b60405180910390fd5b5f73ffffffffffffffffffffffffffffffffffffffff168773ffffffffffffffffffffffffffffffffffffffff1603611faf576040517f08c379a0000000000000000000000000000000000000000000000000000000008152600401611fa69061402f565b60405180910390fd5b5f83118015611fc057506127108311155b611fff576040517f08c379a0000000000000000000000000000000000000000000000000000000008152600401611ff690614097565b60405180910390fd5b603c821015612043576040517f08c379a000000000000000000000000000000000000000000000000000000000815260040161203a906140ff565b60405180910390fd5b5f8a8a604051602001612057929190613d21565b6040516020818303038152906040528051906020012090505f73ffffffffffffffffffffffffffffffffffffffff165f5f8381526020019081526020015f205f0160089054906101000a900473ffffffffffffffffffffffffffffffffffffffff1673ffffffffffffffffffffffffffffffffffffffff161461210f576040517f08c379a000000000000000000000000000000000000000000000000000000000815260040161210690614167565b60405180910390fd5b6040518061018001604052808c67ffffffffffffffff1681526020018b73ffffffffffffffffffffffffffffffffffffffff1681526020018a67ffffffffffffffff1681526020018973ffffffffffffffffffffffffffffffffffffffff1681526020018860ff16815260200187878080601f0160208091040260200160405190810160405280939291908181526020018383808284375f81840152601f19601f8201169050808301925050505050505081526020018581526020018481526020015f81526020015f81526020015f69ffffffffffffffffffff168152602001600115158152505f5f8381526020019081526020015f205f820151815f015f6101000a81548167ffffffffffffffff021916908367ffffffffffffffff1602179055506020820151815f0160086101000a81548173ffffffffffffffffffffffffffffffffffffffff021916908373ffffffffffffffffffffffffffffffffffffffff1602179055506040820151816001015f6101000a81548167ffffffffffffffff021916908367ffffffffffffffff16021790555060608201518160010160086101000a81548173ffffffffffffffffffffffffffffffffffffffff021916908373ffffffffffffffffffffffffffffffffffffffff160217905550608082015181600101601c6101000a81548160ff021916908360ff16021790555060a08201518160020190816123239190614349565b5060c0820151816003015560e0820151816004015561010082015181600501556101208201518160060155610140820151816007015f6101000a81548169ffffffffffffffffffff021916908369ffffffffffffffffffff16021790555061016082015181600701600a6101000a81548160ff021916908315150217905550905050600281908060018154018082558091505060019003905f5260205f20015f90919091909150557f000000000000000000000000000000000000000000000000000000000000000073ffffffffffffffffffffffffffffffffffffffff16635a6aced08c67ffffffffffffffff168c7f0559884fd3a460db3073b7fc896cc77986f16e378210ded43186175bf646fc5f5f1b5f1c7fa65f96fc951c35ead38878e0f0b7a3c744a6f5ccc1476b313353ce31712313ad807fa65f96fc951c35ead38878e0f0b7a3c744a6f5ccc1476b313353ce31712313ad6040518763ffffffff1660e01b815260040161249c96959493929190614418565b5f604051808303815f87803b1580156124b3575f5ffd5b505af11580156124c5573d5f5f3e3d5ffd5b50505050807ff4f006a1b27906560cd3478650f7993ae5a7f7677c31400fdb593d493667fedd8c8c8c8c6040516124ff9493929190614477565b60405180910390a2809150509998505050505050505050565b612520612dd1565b60015f8381526020019081526020015f206040518060c00160405290815f8201548152602001600182015481526020016002820154815260200160038201548152602001600482015481526020016005820154815250509050919050565b6002818154811061258d575f80fd5b905f5260205f20015f915090505481565b50565b7f000000000000000000000000000000000000000000000000000000000000000081565b6001602052805f5260405f205f91509050805f0154908060010154908060020154908060030154908060040154908060050154905086565b5f602052805f5260405f205f91509050805f015f9054906101000a900467ffffffffffffffff1690805f0160089054906101000a900473ffffffffffffffffffffffffffffffffffffffff1690806001015f9054906101000a900467ffffffffffffffff16908060010160089054906101000a900473ffffffffffffffffffffffffffffffffffffffff169080600101601c9054906101000a900460ff16908060020180546126ab90613bd7565b80601f01602080910402602001604051908101604052809291908181526020018280546126d790613bd7565b80156127225780601f106126f957610100808354040283529160200191612722565b820191905f5260205f20905b81548152906001019060200180831161270557829003601f168201915b505050505090806003015490806004015490806005015490806006015490806007015f9054906101000a900469ffffffffffffffffffff169080600701600a9054906101000a900460ff1690508c565b60035f9054906101000a900473ffffffffffffffffffffffffffffffffffffffff1673ffffffffffffffffffffffffffffffffffffffff163373ffffffffffffffffffffffffffffffffffffffff1614612801576040517f08c379a00000000000000000000000000000000000000000000000000000000081526004016127f890613e61565b60405180910390fd5b805f5f8481526020019081526020015f20600701600a6101000a81548160ff0219169083151502179055505050565b60035f9054906101000a900473ffffffffffffffffffffffffffffffffffffffff1673ffffffffffffffffffffffffffffffffffffffff163373ffffffffffffffffffffffffffffffffffffffff16146128bf576040517f08c379a00000000000000000000000000000000000000000000000000000000081526004016128b690613e61565b60405180910390fd5b5f821180156128d057506127108211155b61290f576040517f08c379a000000000000000000000000000000000000000000000000000000000815260040161290690614097565b60405180910390fd5b603c811015612953576040517f08c379a000000000000000000000000000000000000000000000000000000000815260040161294a906140ff565b60405180910390fd5b5f5f5f8581526020019081526020015f20905082816003018190555081816004018190555050505050565b60035f9054906101000a900473ffffffffffffffffffffffffffffffffffffffff1673ffffffffffffffffffffffffffffffffffffffff163373ffffffffffffffffffffffffffffffffffffffff1614612a0d576040517f08c379a0000000000000000000000000000000000000000000000000000000008152600401612a0490613e61565b60405180910390fd5b5f73ffffffffffffffffffffffffffffffffffffffff168173ffffffffffffffffffffffffffffffffffffffff1603612a7b576040517f08c379a0000000000000000000000000000000000000000000000000000000008152600401612a7290614504565b60405180910390fd5b8060035f6101000a81548173ffffffffffffffffffffffffffffffffffffffff021916908373ffffffffffffffffffffffffffffffffffffffff16021790555050565b5f5f5f85610100015103612ad85760015f91509150612b33565b5f612ae885876101000151612ccd565b90508560c001518110612b02576001809250925050612b33565b8560e0015186610120015142612b189190614522565b10612b2b57600160029250925050612b33565b5f5f92509250505b935093915050565b5f5f8313612b4c5760029050612b79565b5f612b5c84866101000151612ccd565b90508460c00151811015612b73575f915050612b79565b60019150505b9392505050565b5f84848487604051602401612b989493929190614555565b6040516020818303038152906040527f388b6e86000000000000000000000000000000000000000000000000000000007bffffffffffffffffffffffffffffffffffffffffffffffffffffffff19166020820180517bffffffffffffffffffffffffffffffffffffffffffffffffffffffff83818316178352505050509050620f424067ffffffffffffffff16876060015173ffffffffffffffffffffffffffffffffffffffff16886040015167ffffffffffffffff167f8dd725fa9d6cd150017ab9e60318d40616439424e2fade9c1c58854950917dfc84604051612c7e91906145ea565b60405180910390a4857ffb06b619206f286adeb4295eab7006f6eabc283fdb9ef7d7c03898a47a39e82686868686604051612cbc9493929190614650565b60405180910390a250505050505050565b5f5f8203612cdf576127109050612d24565b5f828413612cf8578383612cf39190614693565b612d05565b8284612d049190614693565b5b90508261271082612d169190613d4c565b612d209190613dba565b9150505b92915050565b6040518061018001604052805f67ffffffffffffffff1681526020015f73ffffffffffffffffffffffffffffffffffffffff1681526020015f67ffffffffffffffff1681526020015f73ffffffffffffffffffffffffffffffffffffffff1681526020015f60ff168152602001606081526020015f81526020015f81526020015f81526020015f81526020015f69ffffffffffffffffffff1681526020015f151581525090565b6040518060c001604052805f81526020015f81526020015f81526020015f81526020015f81526020015f81525090565b5f5ffd5b5f5ffd5b5f819050919050565b612e1b81612e09565b8114612e25575f5ffd5b50565b5f81359050612e3681612e12565b92915050565b5f69ffffffffffffffffffff82169050919050565b612e5a81612e3c565b8114612e64575f5ffd5b50565b5f81359050612e7581612e51565b92915050565b5f819050919050565b612e8d81612e7b565b8114612e97575f5ffd5b50565b5f81359050612ea881612e84565b92915050565b5f819050919050565b612ec081612eae565b8114612eca575f5ffd5b50565b5f81359050612edb81612eb7565b92915050565b5f5f5f5f5f60a08688031215612efa57612ef9612e01565b5b5f612f0788828901612e28565b9550506020612f1888828901612e67565b9450506040612f2988828901612e9a565b9350506060612f3a88828901612ecd565b9250506080612f4b88828901612e67565b9150509295509295909350565b5f5ffd5b5f6101808284031215612f7257612f71612f58565b5b81905092915050565b5f60208284031215612f9057612f8f612e01565b5b5f82013567ffffffffffffffff811115612fad57612fac612e05565b5b612fb984828501612f5c565b91505092915050565b5f81519050919050565b5f82825260208201905092915050565b5f819050602082019050919050565b612ff481612e09565b82525050565b5f6130058383612feb565b60208301905092915050565b5f602082019050919050565b5f61302782612fc2565b6130318185612fcc565b935061303c83612fdc565b805f5b8381101561306c5781516130538882612ffa565b975061305e83613011565b92505060018101905061303f565b5085935050505092915050565b5f6020820190508181035f830152613091818461301d565b905092915050565b5f602082840312156130ae576130ad612e01565b5b5f6130bb84828501612e28565b91505092915050565b5f67ffffffffffffffff82169050919050565b6130e0816130c4565b82525050565b5f73ffffffffffffffffffffffffffffffffffffffff82169050919050565b5f61310f826130e6565b9050919050565b61311f81613105565b82525050565b5f60ff82169050919050565b61313a81613125565b82525050565b5f81519050919050565b5f82825260208201905092915050565b8281835e5f83830152505050565b5f601f19601f8301169050919050565b5f61318282613140565b61318c818561314a565b935061319c81856020860161315a565b6131a581613168565b840191505092915050565b6131b981612eae565b82525050565b6131c881612e7b565b82525050565b6131d781612e3c565b82525050565b5f8115159050919050565b6131f1816131dd565b82525050565b5f61018083015f83015161320d5f8601826130d7565b5060208301516132206020860182613116565b50604083015161323360408601826130d7565b5060608301516132466060860182613116565b5060808301516132596080860182613131565b5060a083015184820360a08601526132718282613178565b91505060c083015161328660c08601826131b0565b5060e083015161329960e08601826131b0565b506101008301516132ae6101008601826131bf565b506101208301516132c36101208601826131b0565b506101408301516132d86101408601826131ce565b506101608301516132ed6101608601826131e8565b508091505092915050565b5f6020820190508181035f83015261331081846131f7565b905092915050565b61332181612eae565b82525050565b5f60208201905061333a5f830184613318565b92915050565b5f6040820190506133535f830185613318565b6133606020830184613318565b9392505050565b5f60a08201905061337a5f830188613318565b6133876020830187613318565b6133946040830186613318565b6133a16060830185613318565b6133ae6080830184613318565b9695505050505050565b6133c181613105565b82525050565b5f6020820190506133da5f8301846133b8565b92915050565b6133e9816130c4565b81146133f3575f5ffd5b50565b5f81359050613404816133e0565b92915050565b61341381613105565b811461341d575f5ffd5b50565b5f8135905061342e8161340a565b92915050565b61343d81613125565b8114613447575f5ffd5b50565b5f8135905061345881613434565b92915050565b5f5ffd5b5f5ffd5b5f5ffd5b5f5f83601f84011261347f5761347e61345e565b5b8235905067ffffffffffffffff81111561349c5761349b613462565b5b6020830191508360018202830111156134b8576134b7613466565b5b9250929050565b5f5f5f5f5f5f5f60c0888a0312156134da576134d9612e01565b5b5f6134e78a828b016133f6565b97505060206134f88a828b01613420565b96505060406135098a828b016133f6565b955050606061351a8a828b01613420565b945050608061352b8a828b0161344a565b93505060a088013567ffffffffffffffff81111561354c5761354b612e05565b5b6135588a828b0161346a565b925092505092959891949750929550565b61357281612e09565b82525050565b5f60208201905061358b5f830184613569565b92915050565b5f5f5f5f5f5f5f5f5f6101008a8c0312156135af576135ae612e01565b5b5f6135bc8c828d016133f6565b99505060206135cd8c828d01613420565b98505060406135de8c828d016133f6565b97505060606135ef8c828d01613420565b96505060806136008c828d0161344a565b95505060a08a013567ffffffffffffffff81111561362157613620612e05565b5b61362d8c828d0161346a565b945094505060c06136408c828d01612ecd565b92505060e06136518c828d01612ecd565b9150509295985092959850929598565b60c082015f8201516136755f8501826131b0565b50602082015161368860208501826131b0565b50604082015161369b60408501826131b0565b5060608201516136ae60608501826131b0565b5060808201516136c160808501826131b0565b5060a08201516136d460a08501826131b0565b50505050565b5f60c0820190506136ed5f830184613661565b92915050565b5f6020828403121561370857613707612e01565b5b5f61371584828501612ecd565b91505092915050565b5f819050919050565b5f61374161373c613737846130e6565b61371e565b6130e6565b9050919050565b5f61375282613727565b9050919050565b5f61376382613748565b9050919050565b61377381613759565b82525050565b5f60208201905061378c5f83018461376a565b92915050565b5f60c0820190506137a55f830189613318565b6137b26020830188613318565b6137bf6040830187613318565b6137cc6060830186613318565b6137d96080830185613318565b6137e660a0830184613318565b979650505050505050565b6137fa816130c4565b82525050565b61380981613125565b82525050565b5f82825260208201905092915050565b5f61382982613140565b613833818561380f565b935061384381856020860161315a565b61384c81613168565b840191505092915050565b61386081612e7b565b82525050565b61386f81612e3c565b82525050565b61387e816131dd565b82525050565b5f610180820190506138985f83018f6137f1565b6138a5602083018e6133b8565b6138b2604083018d6137f1565b6138bf606083018c6133b8565b6138cc608083018b613800565b81810360a08301526138de818a61381f565b90506138ed60c0830189613318565b6138fa60e0830188613318565b613908610100830187613857565b613916610120830186613318565b613924610140830185613866565b613932610160830184613875565b9d9c50505050505050505050505050565b61394c816131dd565b8114613956575f5ffd5b50565b5f8135905061396781613943565b92915050565b5f5f6040838503121561398357613982612e01565b5b5f61399085828601612e28565b92505060206139a185828601613959565b9150509250929050565b5f5f5f606084860312156139c2576139c1612e01565b5b5f6139cf86828701612e28565b93505060206139e086828701612ecd565b92505060406139f186828701612ecd565b9150509250925092565b5f60208284031215613a1057613a0f612e01565b5b5f613a1d84828501613420565b91505092915050565b7f46656564206e6f742061637469766500000000000000000000000000000000005f82015250565b5f613a5a600f8361380f565b9150613a6582613a26565b602082019050919050565b5f6020820190508181035f830152613a8781613a4e565b9050919050565b7f4e487b71000000000000000000000000000000000000000000000000000000005f52601160045260245ffd5b5f613ac582612eae565b91507fffffffffffffffffffffffffffffffffffffffffffffffffffffffffffffffff8203613af757613af6613a8e565b5b600182019050919050565b7f4e487b71000000000000000000000000000000000000000000000000000000005f52602160045260245ffd5b60038110613b4057613b3f613b02565b5b50565b5f819050613b5082613b2f565b919050565b5f613b5f82613b43565b9050919050565b613b6f81613b55565b82525050565b5f606082019050613b885f830186613866565b613b956020830185613857565b613ba26040830184613b66565b949350505050565b7f4e487b71000000000000000000000000000000000000000000000000000000005f52602260045260245ffd5b5f6002820490506001821680613bee57607f821691505b602082108103613c0157613c00613baa565b5b50919050565b5f613c1182612eae565b9150613c1c83612eae565b9250828201905080821115613c3457613c33613a8e565b5b92915050565b5f5ffd5b5f5ffd5b5f5ffd5b5f5f83356001602003843603038112613c6257613c61613c3a565b5b80840192508235915067ffffffffffffffff821115613c8457613c83613c3e565b5b602083019250600182023603831315613ca057613c9f613c42565b5b509250929050565b5f8160c01b9050919050565b5f613cbe82613ca8565b9050919050565b613cd6613cd1826130c4565b613cb4565b82525050565b5f8160601b9050919050565b5f613cf282613cdc565b9050919050565b5f613d0382613ce8565b9050919050565b613d1b613d1682613105565b613cf9565b82525050565b5f613d2c8285613cc5565b600882019150613d3c8284613d0a565b6014820191508190509392505050565b5f613d5682612eae565b9150613d6183612eae565b9250828202613d6f81612eae565b91508282048414831517613d8657613d85613a8e565b5b5092915050565b7f4e487b71000000000000000000000000000000000000000000000000000000005f52601260045260245ffd5b5f613dc482612eae565b9150613dcf83612eae565b925082613ddf57613dde613d8d565b5b828204905092915050565b7f4e487b71000000000000000000000000000000000000000000000000000000005f52603260045260245ffd5b7f4e6f74206f776e657200000000000000000000000000000000000000000000005f82015250565b5f613e4b60098361380f565b9150613e5682613e17565b602082019050919050565b5f6020820190508181035f830152613e7881613e3f565b9050919050565b828183375f83830152505050565b5f613e98838561380f565b9350613ea5838584613e7f565b613eae83613168565b840190509392505050565b5f61010082019050613ecd5f83018c6137f1565b613eda602083018b6133b8565b613ee7604083018a6137f1565b613ef460608301896133b8565b613f016080830188613800565b81810360a0830152613f14818688613e8d565b9050613f2360c0830185613318565b613f3060e0830184613318565b9a9950505050505050505050565b5f81519050613f4c81612e12565b92915050565b5f60208284031215613f6757613f66612e01565b5b5f613f7484828501613f3e565b91505092915050565b7f496e76616c6964206665656420616464726573730000000000000000000000005f82015250565b5f613fb160148361380f565b9150613fbc82613f7d565b602082019050919050565b5f6020820190508181035f830152613fde81613fa5565b9050919050565b7f496e76616c69642070726f7879206164647265737300000000000000000000005f82015250565b5f61401960158361380f565b915061402482613fe5565b602082019050919050565b5f6020820190508181035f8301526140468161400d565b9050919050565b7f496e76616c696420646576696174696f6e0000000000000000000000000000005f82015250565b5f61408160118361380f565b915061408c8261404d565b602082019050919050565b5f6020820190508181035f8301526140ae81614075565b9050919050565b7f48656172746265617420746f6f2073686f7274000000000000000000000000005f82015250565b5f6140e960138361380f565b91506140f4826140b5565b602082019050919050565b5f6020820190508181035f830152614116816140dd565b9050919050565b7f4665656420616c726561647920726567697374657265640000000000000000005f82015250565b5f61415160178361380f565b915061415c8261411d565b602082019050919050565b5f6020820190508181035f83015261417e81614145565b9050919050565b7f4e487b71000000000000000000000000000000000000000000000000000000005f52604160045260245ffd5b5f819050815f5260205f209050919050565b5f6020601f8301049050919050565b5f82821b905092915050565b5f6008830261420e7fffffffffffffffffffffffffffffffffffffffffffffffffffffffffffffffff826141d3565b61421886836141d3565b95508019841693508086168417925050509392505050565b5f61424a61424561424084612eae565b61371e565b612eae565b9050919050565b5f819050919050565b61426383614230565b61427761426f82614251565b8484546141df565b825550505050565b5f5f905090565b61428e61427f565b61429981848461425a565b505050565b5b818110156142bc576142b15f82614286565b60018101905061429f565b5050565b601f821115614301576142d2816141b2565b6142db846141c4565b810160208510156142ea578190505b6142fe6142f6856141c4565b83018261429e565b50505b505050565b5f82821c905092915050565b5f6143215f1984600802614306565b1980831691505092915050565b5f6143398383614312565b9150826002028217905092915050565b61435282613140565b67ffffffffffffffff81111561436b5761436a614185565b5b6143758254613bd7565b6143808282856142c0565b5f60209050601f8311600181146143b1575f841561439f578287015190505b6143a9858261432e565b865550614410565b601f1984166143bf866141b2565b5f5b828110156143e6578489015182556001820191506020850194506020810190506143c1565b8683101561440357848901516143ff601f891682614312565b8355505b6001600288020188555050505b505050505050565b5f60c08201905061442b5f830189613318565b61443860208301886133b8565b6144456040830187613318565b6144526060830186613318565b61445f6080830185613318565b61446c60a0830184613318565b979650505050505050565b5f60808201905061448a5f8301876137f1565b61449760208301866133b8565b6144a460408301856137f1565b6144b160608301846133b8565b95945050505050565b7f496e76616c6964206164647265737300000000000000000000000000000000005f82015250565b5f6144ee600f8361380f565b91506144f9826144ba565b602082019050919050565b5f6020820190508181035f83015261451b816144e2565b9050919050565b5f61452c82612eae565b915061453783612eae565b925082820390508181111561454f5761454e613a8e565b5b92915050565b5f6080820190506145685f830187613866565b6145756020830186613857565b6145826040830185613318565b61458f6060830184613866565b95945050505050565b5f81519050919050565b5f82825260208201905092915050565b5f6145bc82614598565b6145c681856145a2565b93506145d681856020860161315a565b6145df81613168565b840191505092915050565b5f6020820190508181035f83015261460281846145b2565b905092915050565b6003811061461b5761461a613b02565b5b50565b5f81905061462b8261460a565b919050565b5f61463a8261461e565b9050919050565b61464a81614630565b82525050565b5f6080820190506146635f830187613866565b6146706020830186613857565b61467d6040830185613318565b61468a6060830184614641565b95945050505050565b5f61469d82612e7b565b91506146a883612e7b565b925082820390508181125f8412168282135f8512151617156146cd576146cc613a8e565b5b9291505056fea2646970667358221220d05316f6a74c990ad653e9851116f5178a284f263a5fa421892ab2c556e8346064736f6c634300081c0033",
  "linkReferences": {},
  "deployedLinkReferences": {},
  "immutableReferences": {
    "261": [
      {
        "length": 32,
        "start": 9165
      },
      {
        "length": 32,
        "start": 9635
      }
    ]
  },
  "inputSourceName": "project/contracts/reactive/ChainlinkFeedReactor.sol",
  "buildInfoId": "solc-0_8_28-bd6e509e41b0dcdd459bbef7c22e48138bdaf3fb"
}