{
  "_format": "hh3-artifact-1",
  "contractName": "FeedProxy",
  "sourceName": "contracts/destination/FeedProxy.sol",
  "abi": [
    {
      "inputs": [
        {
          "internalType": "uint8",
          "name": "decimals_",
          "type": "uint8"
        },
        {
          "internalType": "string",
          "name": "description_",
          "type": "string"
        },
        {
          "internalType": "uint256",
          "name": "heartbeat_",
          "type": "uint256"
        }
      ],
      "stateMutability": "nonpayable",
      "type": "constructor"
    },
    {
      "inputs": [],
      "name": "InvalidAddress",
      "type": "error"
    },
    {
      "inputs": [],
      "name": "InvalidAnswer",
      "type": "error"
    },
    {
      "inputs": [],
      "name": "InvalidRound",
      "type": "error"
    },
    {
      "inputs": [],
      "name": "NoDataAvailable",
      "type": "error"
    },
    {
      "inputs": [],
      "name": "Paused",
      "type": "error"
    },
    {
      "inputs": [],
      "name": "StaleData",
      "type": "error"
    },
    {
      "inputs": [],
      "name": "Unauthorized",
      "type": "error"
    },
    {
      "anonymous": false,
      "inputs": [
        {
          "indexed": true,
          "internalType": "int256",
          "name": "current",
          "type": "int256"
        },
        {
          "indexed": true,
          "internalType": "uint256",
          "name": "roundId",
          "type": "uint256"
        },
        {
          "indexed": false,
          "internalType": "uint256",
          "name": "updatedAt",
          "type": "uint256"
        }
      ],
      "name": "AnswerUpdated",
      "type": "event"
    },
    {
      "anonymous": false,
      "inputs": [
        {
          "indexed": true,
          "internalType": "address",
          "name": "sender",
          "type": "address"
        },
        {
          "indexed": false,
          "internalType": "bool",
          "name": "authorized",
          "type": "bool"
        }
      ],
      "name": "AuthorizedSenderUpdated",
      "type": "event"
    },
    {
      "anonymous": false,
      "inputs": [
        {
          "indexed": true,
          "internalType": "address",
          "name": "by",
          "type": "address"
        }
      ],
      "name": "EmergencyPaused",
      "type": "event"
    },
    {
      "anonymous": false,
      "inputs": [
        {
          "indexed": true,
          "internalType": "address",
          "name": "by",
          "type": "address"
        }
      ],
      "name": "EmergencyUnpaused",
      "type": "event"
    },
    {
      "anonymous": false,
      "inputs": [
        {
          "indexed": true,
          "internalType": "uint256",
          "name": "roundId",
          "type": "uint256"
        },
        {
          "indexed": true,
          "internalType": "address",
          "name": "startedBy",
          "type": "address"
        },
        {
          "indexed": false,
          "internalType": "uint256",
          "name": "startedAt",
          "type": "uint256"
        }
      ],
      "name": "NewRound",
      "type": "event"
    },
    {
      "anonymous": false,
      "inputs": [
        {
          "indexed": true,
          "internalType": "address",
          "name": "previousOwner",
          "type": "address"
        },
        {
          "indexed": true,
          "internalType": "address",
          "name": "newOwner",
          "type": "address"
        }
      ],
      "name": "OwnershipTransferred",
      "type": "event"
    },
    {
      "anonymous": false,
      "inputs": [
        {
          "indexed": false,
          "internalType": "uint80",
          "name": "roundId",
          "type": "uint80"
        },
        {
          "indexed": false,
          "internalType": "uint256",
          "name": "timeSinceUpdate",
          "type": "uint256"
        }
      ],
      "name": "StaleDataRejected",
      "type": "event"
    },
    {
      "inputs": [
        {
          "internalType": "address",
          "name": "sender",
          "type": "address"
        }
      ],
      "name": "addAuthorizedSender",
      "outputs": [],
      "stateMutability": "nonpayable",
      "type": "function"
    },
    {
      "inputs": [
        {
          "internalType": "address",
          "name": "",
          "type": "address"
        }
      ],
      "name": "authorizedSenders",
      "outputs": [
        {
          "internalType": "bool",
          "name": "",
          "type": "bool"
        }
      ],
      "stateMutability": "view",
      "type": "function"
    },
    {
      "inputs": [],
      "name": "decimals",
      "outputs": [
        {
          "internalType": "uint8",
          "name": "",
          "type": "uint8"
        }
      ],
      "stateMutability": "view",
      "type": "function"
    },
    {
      "inputs": [],
      "name": "description",
      "outputs": [
        {
          "internalType": "string",
          "name": "",
          "type": "string"
        }
      ],
      "stateMutability": "view",
      "type": "function"
    },
    {
      "inputs": [
        {
          "internalType": "uint80",
          "name": "_roundId",
          "type": "uint80"
        }
      ],
      "name": "getRoundData",
      "outputs": [
        {
          "internalType": "uint80",
          "name": "roundId",
          "type": "uint80"
        },
        {
          "internalType": "int256",
          "name": "answer",
          "type": "int256"
        },
        {
          "internalType": "uint256",
          "name": "startedAt",
          "type": "uint256"
        },
        {
          "internalType": "uint256",
          "name": "updatedAt",
          "type": "uint256"
        },
        {
          "internalType": "uint80",
          "name": "answeredInRound",
          "type": "uint80"
        }
      ],
      "stateMutability": "view",
      "type": "function"
    },
    {
      "inputs": [],
      "name": "healthCheck",
      "outputs": [
        {
          "internalType": "bool",
          "name": "isHealthy",
          "type": "bool"
        },
        {
          "internalType": "uint256",
          "name": "secondsSinceUpdate",
          "type": "uint256"
        },
        {
          "internalType": "bool",
          "name": "isPaused",
          "type": "bool"
        }
      ],
      "stateMutability": "view",
      "type": "function"
    },
    {
      "inputs": [],
      "name": "heartbeat",
      "outputs": [
        {
          "internalType": "uint256",
          "name": "",
          "type": "uint256"
        }
      ],
      "stateMutability": "view",
      "type": "function"
    },
    {
      "inputs": [],
      "name": "isFeedFresh",
      "outputs": [
        {
          "internalType": "bool",
          "name": "",
          "type": "bool"
        }
      ],
      "stateMutability": "view",
      "type": "function"
    },
    {
      "inputs": [],
      "name": "lastUpdateGasUsed",
      "outputs": [
        {
          "internalType": "uint256",
          "name": "",
          "type": "uint256"
        }
      ],
      "stateMutability": "view",
      "type": "function"
    },
    {
      "inputs": [],
      "name": "latestRoundData",
      "outputs": [
        {
          "internalType": "uint80",
          "name": "roundId",
          "type": "uint80"
        },
        {
          "internalType": "int256",
          "name": "answer",
          "type": "int256"
        },
        {
          "internalType": "uint256",
          "name": "startedAt",
          "type": "uint256"
        },
        {
          "internalType": "uint256",
          "name": "updatedAt",
          "type": "uint256"
        },
        {
          "internalType": "uint80",
          "name": "answeredInRound",
          "type": "uint80"
        }
      ],
      "stateMutability": "view",
      "type": "function"
    },
    {
      "inputs": [],
      "name": "owner",
      "outputs": [
        {
          "internalType": "address",
          "name": "",
          "type": "address"
        }
      ],
      "stateMutability": "view",
      "type": "function"
    },
    {
      "inputs": [],
      "name": "pause",
      "outputs": [],
      "stateMutability": "nonpayable",
      "type": "function"
    },
    {
      "inputs": [],
      "name": "paused",
      "outputs": [
        {
          "internalType": "bool",
          "name": "",
          "type": "bool"
        }
      ],
      "stateMutability": "view",
      "type": "function"
    },
    {
      "inputs": [
        {
          "internalType": "address",
          "name": "sender",
          "type": "address"
        }
      ],
      "name": "removeAuthorizedSender",
      "outputs": [],
      "stateMutability": "nonpayable",
      "type": "function"
    },
    {
      "inputs": [],
      "name": "timeSinceUpdate",
      "outputs": [
        {
          "internalType": "uint256",
          "name": "",
          "type": "uint256"
        }
      ],
      "stateMutability": "view",
      "type": "function"
    },
    {
      "inputs": [],
      "name": "totalUpdates",
      "outputs": [
        {
          "internalType": "uint256",
          "name": "",
          "type": "uint256"
        }
      ],
      "stateMutability": "view",
      "type": "function"
    },
    {
      "inputs": [
        {
          "internalType": "address",
          "name": "newOwner",
          "type": "address"
        }
      ],
      "name": "transferOwnership",
      "outputs": [],
      "stateMutability": "nonpayable",
      "type": "function"
    },
    {
      "inputs": [],
      "name": "unpause",
      "outputs": [],
      "stateMutability": "nonpayable",
      "type": "function"
    },
    {
      "inputs": [
        {
          "internalType": "string",
          "name": "newDescription",
          "type": "string"
        }
      ],
      "name": "updateDescription",
      "outputs": [],
      "stateMutability": "nonpayable",
      "type": "function"
    },
    {
      "inputs": [
        {
          "internalType": "uint80",
          "name": "roundId",
          "type": "uint80"
        },
        {
          "internalType": "int256",
          "name": "answer",
          "type": "int256"
        },
        {
          "internalType": "uint256",
          "name": "updatedAt",
          "type": "uint256"
        },
        {
          "internalType": "uint80",
          "name": "answeredInRound",
          "type": "uint80"
        }
      ],
      "name": "updateRoundData",
      "outputs": [],
      "stateMutability": "nonpayable",
      "type": "function"
    },
    {
      "inputs": [],
      "name": "version",
      "outputs": [
        {
          "internalType": "uint256",
          "name": "",
          "type": "uint256"
        }
      ],
      "stateMutability": "pure",
      "type": "function"
    }
  ],
  "bytecode": "0x60c060405234801561000f575f5ffd5b506040516124223803806124228339818101604052810190610031919061028d565b5f810361006a576040517fb5f71a2e00000000000000000000000000000000000000000000000000000000815260040160405180910390fd5b3360065f6101000a81548173ffffffffffffffffffffffffffffffffffffffff021916908373ffffffffffffffffffffffffffffffffffffffff1602179055508260ff1660808160ff1681525050815f90816100c69190610500565b508060a081815250505050506105cf565b5f604051905090565b5f5ffd5b5f5ffd5b5f60ff82169050919050565b6100fd816100e8565b8114610107575f5ffd5b50565b5f81519050610118816100f4565b92915050565b5f5ffd5b5f5ffd5b5f601f19601f8301169050919050565b7f4e487b71000000000000000000000000000000000000000000000000000000005f52604160045260245ffd5b61016c82610126565b810181811067ffffffffffffffff8211171561018b5761018a610136565b5b80604052505050565b5f61019d6100d7565b90506101a98282610163565b919050565b5f67ffffffffffffffff8211156101c8576101c7610136565b5b6101d182610126565b9050602081019050919050565b8281835e5f83830152505050565b5f6101fe6101f9846101ae565b610194565b90508281526020810184848401111561021a57610219610122565b5b6102258482856101de565b509392505050565b5f82601f8301126102415761024061011e565b5b81516102518482602086016101ec565b91505092915050565b5f819050919050565b61026c8161025a565b8114610276575f5ffd5b50565b5f8151905061028781610263565b92915050565b5f5f5f606084860312156102a4576102a36100e0565b5b5f6102b18682870161010a565b935050602084015167ffffffffffffffff8111156102d2576102d16100e4565b5b6102de8682870161022d565b92505060406102ef86828701610279565b9150509250925092565b5f81519050919050565b7f4e487b71000000000000000000000000000000000000000000000000000000005f52602260045260245ffd5b5f600282049050600182168061034757607f821691505b60208210810361035a57610359610303565b5b50919050565b5f819050815f5260205f209050919050565b5f6020601f8301049050919050565b5f82821b905092915050565b5f600883026103bc7fffffffffffffffffffffffffffffffffffffffffffffffffffffffffffffffff82610381565b6103c68683610381565b95508019841693508086168417925050509392505050565b5f819050919050565b5f6104016103fc6103f78461025a565b6103de565b61025a565b9050919050565b5f819050919050565b61041a836103e7565b61042e61042682610408565b84845461038d565b825550505050565b5f5f905090565b610445610436565b610450818484610411565b505050565b5b81811015610473576104685f8261043d565b600181019050610456565b5050565b601f8211156104b85761048981610360565b61049284610372565b810160208510156104a1578190505b6104b56104ad85610372565b830182610455565b50505b505050565b5f82821c905092915050565b5f6104d85f19846008026104bd565b1980831691505092915050565b5f6104f083836104c9565b9150826002028217905092915050565b610509826102f9565b67ffffffffffffffff81111561052257610521610136565b5b61052c8254610330565b610537828285610477565b5f60209050601f831160018114610568575f8415610556578287015190505b61056085826104e5565b8655506105c7565b601f19841661057686610360565b5f5b8281101561059d57848901518255600182019150602085019450602081019050610578565b868310156105ba57848901516105b6601f8916826104c9565b8355505b6001600288020188555050505b505050505050565b60805160a051611e1d6106055f395f81816105ce015281816108f101528181610ddd015261134d01525f61042a0152611e1d5ff3fe608060405234801561000f575f5ffd5b5060043610610135575f3560e01c80638456cb59116100b6578063cbd579671161007a578063cbd57967146102fb578063e735b48a14610317578063f2fde38b14610333578063fa7229ee1461034f578063fb5746c11461036b578063feaf968c1461038957610135565b80638456cb59146102615780638da5cb5b1461026b5780639a6fc8f514610289578063b252720b146102bd578063c88036ee146102dd57610135565b80633f4ba83a116100fd5780633f4ba83a146101cd57806354fd4d50146101d75780635c975abb146101f55780636f324967146102135780637284e4161461024357610135565b8063150ff4bd146101395780631b36949114610157578063313ce56714610175578063388b6e86146101935780633defb962146101af575b5f5ffd5b6101416103ab565b60405161014e91906114fc565b60405180910390f35b61015f610421565b60405161016c91906114fc565b60405180910390f35b61017d610427565b60405161018a9190611530565b60405180910390f35b6101ad60048036038101906101a891906115f6565b61044e565b005b6101b76108ee565b6040516101c491906114fc565b60405180910390f35b6101d5610915565b005b6101df6109f9565b6040516101ec91906114fc565b60405180910390f35b6101fd610a01565b60405161020a9190611674565b60405180910390f35b61022d600480360381019061022891906116e7565b610a13565b60405161023a9190611674565b60405180910390f35b61024b610a30565b6040516102589190611782565b60405180910390f35b610269610abf565b005b610273610ba4565b60405161028091906117b1565b60405180910390f35b6102a3600480360381019061029e91906117ca565b610bc9565b6040516102b4959493929190611813565b60405180910390f35b6102c5610d2c565b6040516102d493929190611864565b60405180910390f35b6102e5610e18565b6040516102f291906114fc565b60405180910390f35b610315600480360381019061031091906116e7565b610e1e565b005b610331600480360381019061032c91906119c5565b610f49565b005b61034d600480360381019061034891906116e7565b610fe1565b005b610369600480360381019061036491906116e7565b61118f565b005b610373611321565b6040516103809190611674565b60405180910390f35b61039161139a565b6040516103a2959493929190611813565b60405180910390f35b5f5f60016002015f9054906101000a900463ffffffff1663ffffffff16036103f5577fffffffffffffffffffffffffffffffffffffffffffffffffffffffffffffffff905061041e565b60016002015f9054906101000a900463ffffffff1663ffffffff164261041b9190611a39565b90505b90565b60095481565b5f7f0000000000000000000000000000000000000000000000000000000000000000905090565b60075f3373ffffffffffffffffffffffffffffffffffffffff1673ffffffffffffffffffffffffffffffffffffffff1681526020019081526020015f205f9054906101000a900460ff166104ce576040517f82b4290000000000000000000000000000000000000000000000000000000000815260040160405180910390fd5b60085f9054906101000a900460ff1615610514576040517f9e87fac800000000000000000000000000000000000000000000000000000000815260040160405180910390fd5b5f5a905060015f015f9054906101000a900469ffffffffffffffffffff1669ffffffffffffffffffff168569ffffffffffffffffffff1611610582576040517fa2b52a5400000000000000000000000000000000000000000000000000000000815260040160405180910390fd5b5f84136105bb576040517fb5f71a2e00000000000000000000000000000000000000000000000000000000815260040160405180910390fd5b5f83426105c89190611a39565b905060027f00000000000000000000000000000000000000000000000000000000000000006105f79190611a6c565b811115610669577f54636bd15124fdec1f5e6ed88f3ac8bdcd1ee627533fd5ad87d9dd740f0be0f0868260405161062f929190611aad565b60405180910390a16040517f6ead710b00000000000000000000000000000000000000000000000000000000815260040160405180910390fd5b5f6040518060a001604052808869ffffffffffffffffffff1681526020018569ffffffffffffffffffff1681526020018681526020018663ffffffff1681526020018781525090508060015f820151815f015f6101000a81548169ffffffffffffffffffff021916908369ffffffffffffffffffff1602179055506020820151815f01600a6101000a81548169ffffffffffffffffffff021916908369ffffffffffffffffffff160217905550604082015181600101556060820151816002015f6101000a81548163ffffffff021916908363ffffffff160217905550608082015181600301559050508060055f8969ffffffffffffffffffff1669ffffffffffffffffffff1681526020019081526020015f205f820151815f015f6101000a81548169ffffffffffffffffffff021916908369ffffffffffffffffffff1602179055506020820151815f01600a6101000a81548169ffffffffffffffffffff021916908369ffffffffffffffffffff160217905550604082015181600101556060820151816002015f6101000a81548163ffffffff021916908363ffffffff1602179055506080820151816003015590505060095f81548092919061082e90611ad4565b91905055505a8361083f9190611a39565b600a819055503373ffffffffffffffffffffffffffffffffffffffff168769ffffffffffffffffffff167f0109fc6f55cf40689f02fbaad7af7fe7bbac8a3d2186600afc7d3e10cac602718760405161089891906114fc565b60405180910390a38669ffffffffffffffffffff16867f0559884fd3a460db3073b7fc896cc77986f16e378210ded43186175bf646fc5f876040516108dd91906114fc565b60405180910390a350505050505050565b5f7f0000000000000000000000000000000000000000000000000000000000000000905090565b60065f9054906101000a900473ffffffffffffffffffffffffffffffffffffffff1673ffffffffffffffffffffffffffffffffffffffff163373ffffffffffffffffffffffffffffffffffffffff161461099b576040517f82b4290000000000000000000000000000000000000000000000000000000000815260040160405180910390fd5b5f60085f6101000a81548160ff0219169083151502179055503373ffffffffffffffffffffffffffffffffffffffff167ff5cbf596165cc457b2cd92e8d8450827ee314968160a5696402d75766fc52caf60405160405180910390a2565b5f6001905090565b60085f9054906101000a900460ff1681565b6007602052805f5260405f205f915054906101000a900460ff1681565b60605f8054610a3e90611b48565b80601f0160208091040260200160405190810160405280929190818152602001828054610a6a90611b48565b8015610ab55780601f10610a8c57610100808354040283529160200191610ab5565b820191905f5260205f20905b815481529060010190602001808311610a9857829003601f168201915b5050505050905090565b60065f9054906101000a900473ffffffffffffffffffffffffffffffffffffffff1673ffffffffffffffffffffffffffffffffffffffff163373ffffffffffffffffffffffffffffffffffffffff1614610b45576040517f82b4290000000000000000000000000000000000000000000000000000000000815260040160405180910390fd5b600160085f6101000a81548160ff0219169083151502179055503373ffffffffffffffffffffffffffffffffffffffff167fb8fad2fa0ed7a383e747c309ef2c4391d7b65592a48893e57ccc1fab7079145660405160405180910390a2565b60065f9054906101000a900473ffffffffffffffffffffffffffffffffffffffff1681565b5f5f5f5f5f5f60055f8869ffffffffffffffffffff1669ffffffffffffffffffff1681526020019081526020015f206040518060a00160405290815f82015f9054906101000a900469ffffffffffffffffffff1669ffffffffffffffffffff1669ffffffffffffffffffff1681526020015f8201600a9054906101000a900469ffffffffffffffffffff1669ffffffffffffffffffff1669ffffffffffffffffffff16815260200160018201548152602001600282015f9054906101000a900463ffffffff1663ffffffff1663ffffffff16815260200160038201548152505090505f816060015163ffffffff1603610cee576040517f779619da00000000000000000000000000000000000000000000000000000000815260040160405180910390fd5b805f015181608001518260600151836060015184602001518263ffffffff1692508163ffffffff169150955095509550955095505091939590929450565b5f5f5f5f60016002015f9054906101000a900463ffffffff1663ffffffff1614610d7b5760016002015f9054906101000a900463ffffffff1663ffffffff1642610d769190611a39565b610d9d565b7fffffffffffffffffffffffffffffffffffffffffffffffffffffffffffffffff5b915060085f9054906101000a900460ff16158015610dd457505f60016002015f9054906101000a900463ffffffff1663ffffffff16115b8015610e0057507f00000000000000000000000000000000000000000000000000000000000000008211155b925060085f9054906101000a900460ff169050909192565b600a5481565b60065f9054906101000a900473ffffffffffffffffffffffffffffffffffffffff1673ffffffffffffffffffffffffffffffffffffffff163373ffffffffffffffffffffffffffffffffffffffff1614610ea4576040517f82b4290000000000000000000000000000000000000000000000000000000000815260040160405180910390fd5b5f60075f8373ffffffffffffffffffffffffffffffffffffffff1673ffffffffffffffffffffffffffffffffffffffff1681526020019081526020015f205f6101000a81548160ff0219169083151502179055508073ffffffffffffffffffffffffffffffffffffffff167f9316df45c3226259b8d7f2d32687edb5a88141d5f47d0d6b67b927f3030c66d15f604051610f3e9190611674565b60405180910390a250565b60065f9054906101000a900473ffffffffffffffffffffffffffffffffffffffff1673ffffffffffffffffffffffffffffffffffffffff163373ffffffffffffffffffffffffffffffffffffffff1614610fcf576040517f82b4290000000000000000000000000000000000000000000000000000000000815260040160405180910390fd5b805f9081610fdd9190611d18565b5050565b60065f9054906101000a900473ffffffffffffffffffffffffffffffffffffffff1673ffffffffffffffffffffffffffffffffffffffff163373ffffffffffffffffffffffffffffffffffffffff1614611067576040517f82b4290000000000000000000000000000000000000000000000000000000000815260040160405180910390fd5b5f73ffffffffffffffffffffffffffffffffffffffff168173ffffffffffffffffffffffffffffffffffffffff16036110cc576040517fe6c4247b00000000000000000000000000000000000000000000000000000000815260040160405180910390fd5b5f60065f9054906101000a900473ffffffffffffffffffffffffffffffffffffffff1690508160065f6101000a81548173ffffffffffffffffffffffffffffffffffffffff021916908373ffffffffffffffffffffffffffffffffffffffff1602179055508173ffffffffffffffffffffffffffffffffffffffff168173ffffffffffffffffffffffffffffffffffffffff167f8be0079c531659141344cd1fd0a4f28419497f9722a3daafe3b4186f6b6457e060405160405180910390a35050565b60065f9054906101000a900473ffffffffffffffffffffffffffffffffffffffff1673ffffffffffffffffffffffffffffffffffffffff163373ffffffffffffffffffffffffffffffffffffffff1614611215576040517f82b4290000000000000000000000000000000000000000000000000000000000815260040160405180910390fd5b5f73ffffffffffffffffffffffffffffffffffffffff168173ffffffffffffffffffffffffffffffffffffffff160361127a576040517fe6c4247b00000000000000000000000000000000000000000000000000000000815260040160405180910390fd5b600160075f8373ffffffffffffffffffffffffffffffffffffffff1673ffffffffffffffffffffffffffffffffffffffff1681526020019081526020015f205f6101000a81548160ff0219169083151502179055508073ffffffffffffffffffffffffffffffffffffffff167f9316df45c3226259b8d7f2d32687edb5a88141d5f47d0d6b67b927f3030c66d160016040516113169190611674565b60405180910390a250565b5f5f60016002015f9054906101000a900463ffffffff1663ffffffff160361134b575f9050611397565b7f000000000000000000000000000000000000000000000000000000000000000060016002015f9054906101000a900463ffffffff1663ffffffff16426113929190611a39565b111590505b90565b5f5f5f5f5f5f60016002015f9054906101000a900463ffffffff1663ffffffff16036113f2576040517f779619da00000000000000000000000000000000000000000000000000000000815260040160405180910390fd5b5f60016040518060a00160405290815f82015f9054906101000a900469ffffffffffffffffffff1669ffffffffffffffffffff1669ffffffffffffffffffff1681526020015f8201600a9054906101000a900469ffffffffffffffffffff1669ffffffffffffffffffff1669ffffffffffffffffffff16815260200160018201548152602001600282015f9054906101000a900463ffffffff1663ffffffff1663ffffffff1681526020016003820154815250509050805f015181608001518260600151836060015184602001518263ffffffff1692508163ffffffff16915095509550955095509550509091929394565b5f819050919050565b6114f6816114e4565b82525050565b5f60208201905061150f5f8301846114ed565b92915050565b5f60ff82169050919050565b61152a81611515565b82525050565b5f6020820190506115435f830184611521565b92915050565b5f604051905090565b5f5ffd5b5f5ffd5b5f69ffffffffffffffffffff82169050919050565b6115788161155a565b8114611582575f5ffd5b50565b5f813590506115938161156f565b92915050565b5f819050919050565b6115ab81611599565b81146115b5575f5ffd5b50565b5f813590506115c6816115a2565b92915050565b6115d5816114e4565b81146115df575f5ffd5b50565b5f813590506115f0816115cc565b92915050565b5f5f5f5f6080858703121561160e5761160d611552565b5b5f61161b87828801611585565b945050602061162c878288016115b8565b935050604061163d878288016115e2565b925050606061164e87828801611585565b91505092959194509250565b5f8115159050919050565b61166e8161165a565b82525050565b5f6020820190506116875f830184611665565b92915050565b5f73ffffffffffffffffffffffffffffffffffffffff82169050919050565b5f6116b68261168d565b9050919050565b6116c6816116ac565b81146116d0575f5ffd5b50565b5f813590506116e1816116bd565b92915050565b5f602082840312156116fc576116fb611552565b5b5f611709848285016116d3565b91505092915050565b5f81519050919050565b5f82825260208201905092915050565b8281835e5f83830152505050565b5f601f19601f8301169050919050565b5f61175482611712565b61175e818561171c565b935061176e81856020860161172c565b6117778161173a565b840191505092915050565b5f6020820190508181035f83015261179a818461174a565b905092915050565b6117ab816116ac565b82525050565b5f6020820190506117c45f8301846117a2565b92915050565b5f602082840312156117df576117de611552565b5b5f6117ec84828501611585565b91505092915050565b6117fe8161155a565b82525050565b61180d81611599565b82525050565b5f60a0820190506118265f8301886117f5565b6118336020830187611804565b61184060408301866114ed565b61184d60608301856114ed565b61185a60808301846117f5565b9695505050505050565b5f6060820190506118775f830186611665565b61188460208301856114ed565b6118916040830184611665565b949350505050565b5f5ffd5b5f5ffd5b7f4e487b71000000000000000000000000000000000000000000000000000000005f52604160045260245ffd5b6118d78261173a565b810181811067ffffffffffffffff821117156118f6576118f56118a1565b5b80604052505050565b5f611908611549565b905061191482826118ce565b919050565b5f67ffffffffffffffff821115611933576119326118a1565b5b61193c8261173a565b9050602081019050919050565b828183375f83830152505050565b5f61196961196484611919565b6118ff565b9050828152602081018484840111156119855761198461189d565b5b611990848285611949565b509392505050565b5f82601f8301126119ac576119ab611899565b5b81356119bc848260208601611957565b91505092915050565b5f602082840312156119da576119d9611552565b5b5f82013567ffffffffffffffff8111156119f7576119f6611556565b5b611a0384828501611998565b91505092915050565b7f4e487b71000000000000000000000000000000000000000000000000000000005f52601160045260245ffd5b5f611a43826114e4565b9150611a4e836114e4565b9250828203905081811115611a6657611a65611a0c565b5b92915050565b5f611a76826114e4565b9150611a81836114e4565b9250828202611a8f816114e4565b91508282048414831517611aa657611aa5611a0c565b5b5092915050565b5f604082019050611ac05f8301856117f5565b611acd60208301846114ed565b9392505050565b5f611ade826114e4565b91507fffffffffffffffffffffffffffffffffffffffffffffffffffffffffffffffff8203611b1057611b0f611a0c565b5b600182019050919050565b7f4e487b71000000000000000000000000000000000000000000000000000000005f52602260045260245ffd5b5f6002820490506001821680611b5f57607f821691505b602082108103611b7257611b71611b1b565b5b50919050565b5f819050815f5260205f209050919050565b5f6020601f8301049050919050565b5f82821b905092915050565b5f60088302611bd47fffffffffffffffffffffffffffffffffffffffffffffffffffffffffffffffff82611b99565b611bde8683611b99565b95508019841693508086168417925050509392505050565b5f819050919050565b5f611c19611c14611c0f846114e4565b611bf6565b6114e4565b9050919050565b5f819050919050565b611c3283611bff565b611c46611c3e82611c20565b848454611ba5565b825550505050565b5f5f905090565b611c5d611c4e565b611c68818484611c29565b505050565b5b81811015611c8b57611c805f82611c55565b600181019050611c6e565b5050565b601f821115611cd057611ca181611b78565b611caa84611b8a565b81016020851015611cb9578190505b611ccd611cc585611b8a565b830182611c6d565b50505b505050565b5f82821c905092915050565b5f611cf05f1984600802611cd5565b1980831691505092915050565b5f611d088383611ce1565b9150826002028217905092915050565b611d2182611712565b67ffffffffffffffff811115611d3a57611d396118a1565b5b611d448254611b48565b611d4f828285611c8f565b5f60209050601f831160018114611d80575f8415611d6e578287015190505b611d788582611cfd565b865550611ddf565b601f198416611d8e86611b78565b5f5b82811015611db557848901518255600182019150602085019450602081019050611d90565b86831015611dd25784890151611dce601f891682611ce1565b8355505b6001600288020188555050505b50505050505056fea26469706673582212205d3d5c3e692e841e81630e772fb0d86458532bff732000f866c149770ed5d78c64736f6c634300081c0033",
  "linkReferences": {},
  "deployedLinkReferences": {},
  "immutableReferences": {
    "65": [
      {
        "length": 32,
        "start": 1066
      }
    ],
    "69": [
      {
        "length": 32,
        "start": 1486
      },
      {
        "length": 32,
        "start": 2289
      },
      {
        "length": 32,
        "start": 3549
      },
      {
        "length": 32,
        "start": 4941
      }
    ]
  },
  "inputSourceName": "project/contracts/destination/FeedProxy.sol",
  "buildInfoId": "solc-0_8_28-9581c455582264cb4087550747ef0aed0abf4517"
}